:100000000EC1000039C1000037C1000035C1000039
:1000100033C1000031C100002FC100002DC100001C
:100020002BC1000029C1000027C1000025C100002C
:1000300023C1000021C100001FC100001DC100003C
:100040001BC1000019C1000017C1000015C100004C
:1000500013C1000011C100000FC100000C94310950
:100060000BC100000C94A20C0C94E60D05C100001D
:1000700003C1000001C10000FFC00000FDC000007E
:10008000FBC00000F9C00000F7C00000F5C0000090
:100090000C94E20C0C94250EEFC00000EDC00000A3
:1000A000EBC00000E9C00000E7C00000E5C00000B0
:1000B000E3C00000E1C00000DFC00000DDC00000C0
:1000C000DBC00000D9C00000D7C000000C94220D96
:1000D0000C94640ED1C000000C94620D0C94A30E1D
:1000E000CBC0000000002100240027002A002D00C2
:1000F0003000330001010000040107010A01000083
:100100002200250028002B002E00310034000201BF
:100110000000050108010B0100002000230026005B
:1001200029002C002F00320000010000030106010D
:10013000090105050505070508080808020202026D
:100140000A0A080804040404010101010101010173
:100150000303030303030303040707070C0C0C0C3E
:100160000C0C0C0C02020202060606060606060627
:100170000B0B0B0B0B0B0B0B07070A0A0A0A0A0ADD
:100180000505050401021020200808102040102059
:10019000408002010201080402010102040810204B
:1001A0004080804020100804020180040201804049
:1001B00020100804020108040201010204081020B2
:1001C00040800102040810204080100804088010BC
:1001D0002040044080100000090A02080B0C0D07A3
:1001E0000603040100000000000000000000000001
:1001F00000000000000000000000000000000000FF
:10020000000011100F0000000000000000000000BE
:100210000000000000000000000000001210112487
:100220001FBECFEFD1E2DEBFCDBF00E00CBF12E0BA
:10023000A0E0B2E0E0E7F3E200E00BBF02C007900D
:100240000D92AA33B107D9F71BBE15E0AAE3B2E0BD
:1002500001C01D92A33EB107E1F712E0CEE1D2E06A
:1002600004C02297FE010E94A611CC31D107C9F724
:100270000E94720A0C94B611C3CE882321F08FEF2E
:1002800080930B01089510920B010895882311F0BB
:1002900012B808958FEF82B90895823041F183300A
:1002A00020F4813009F07DC007C0843009F43DC0DE
:1002B000803109F076C057C088E260E05FD689E2FD
:1002C00060E05CD685E460E059D687E260E056D60F
:1002D00084E460E053D683E460E050D681E460E0DB
:1002E0004DD682E460E04AD68FE360E01AC088E22F
:1002F00061E044D689E260E041D685E461E03ED623
:1003000087E260E03BD684E461E038D683E460E0D5
:1003100035D681E461E032D682E460E02FD68FE307
:1003200061E02CD680E460E01DC088E260E026D663
:1003300089E261E023D685E460E020D687E261E0CF
:100340001DD684E460E01AD683E461E017D681E428
:1003500060E014D682E461E011D68FE360E00ED64F
:1003600080E461E00BC688E261E008D689E261E0E2
:1003700005D685E461E002D687E261E0FFD584E43A
:1003800061E0FCD583E461E0F9D581E461E0F6D574
:1003900082E461E0F3D58FE361E0F0D580E461E0D1
:1003A000EDC508958FEF88B981E090E00E94060ABC
:1003B00018B808950F931F93DF93CF9300D00F9237
:1003C0000F92CDB7DEB7062FDE011196E5E2F2E01F
:1003D00095E001900D929150E1F7FE01E80FF11DBB
:1003E000118186E260E0CAD51EBD0DB407FEFDCFC7
:1003F0008EB50EBD0DB407FEFDCF8EB586E261E071
:10040000BDD50F900F900F900F900F90CF91DF916F
:100410001F910F910895CF93DF93EBD486E261E0B3
:10042000FAD4C0E0D0E0FE01E05EFD4F8C2F608189
:10043000C1DF2196C530D105B1F7DF91CF91089585
:10044000863441F1873474F48334F1F084342CF42D
:100450008134B1F0823471F515C08434B9F085343B
:1004600049F516C08A34E9F08B342CF48734A1F0B6
:10047000883401F513C08B34B9F08C34D9F417C02B
:1004800080B1089583B1089586B1089589B1089522
:100490008CB108958FB1089582B3089580910001C1
:1004A0000895809103010895809106010895809137
:1004B0000901089508958BE595E060E072E00C94E1
:1004C000DD0BEF92FF921F93CF93DF938BE088D5E4
:1004D000892B51F5809168028F5F80936802833089
:1004E00018F107D7209148023091490240914A0201
:1004F00050914B02621B730B840B950B685E73402B
:100500008040904088F08BE595E063E072E00E94C7
:10051000DD0B10926802EDD6609348027093490299
:1005200080934A0290934B028BE595E00E94680FFE
:10053000892B09F4DBC38BE595E00E94990F80932A
:100540003A026AE070E080E090E007D780913A02DA
:100550008D3409F471C18E3454F4833409F418C312
:10056000883409F45EC0813409F0BBC33DC18235D3
:1005700069F0833524F4803509F0B3C3E4C28535CE
:1005800009F449C1873509F0ACC328C08BE595E073
:100590000E94790F0E94AC11892B79F08BE595E0D0
:1005A0000E94990F809331034BDF682F8BE595E014
:1005B0004AE050E00E94640B92C38BE595E00E94F4
:1005C000790FC0970A9708F08AC38BE595E00E94DF
:1005D0009F0C862F60933B0203D516C18BE595E0F7
:1005E0000E94790FC0970A9708F079C38BE595E0D0
:1005F0000E949F0C60933B028BE595E00E94990F4F
:100600008834910529F08C34910509F068C304C041
:1006100080913B0261E003C080913B0260E0AED478
:100620005EC38BE595E00E94790FC0970A9708F0AA
:10063000D8C08BE595E00E949F0C9B01AC016093B4
:10064000400230934102809342025093430260E49F
:1006500072E48FE090E00E94671120935002309383
:100660005102409352025093530281E00FDE1092E8
:10067000540210925502109256021092570247D619
:1006800060934C0270934D0280934E0290934F0200
:100690008AE0A6D4892B09F451C080E0EEDD37C092
:1006A0008091540290915502A0915602B091570248
:1006B0000196A11DB11D8093540290935502A09301
:1006C0005602B093570223D620914C0230914D022E
:1006D00040914E0250914F02621B730B840B950B9D
:1006E0002091500230915102409152025091530298
:1006F000621773078407950750F054DE08D660939D
:100700004C0270934D0280934E0290934F028AE008
:1007100067D4892B69F48091540290915502A0917D
:100720005602B0915702895E9340A040B04030F429
:100730008AE056D4892B09F4B3CFC5CF1092540266
:1007400010925502109256021092570281E095DDE8
:1007500037C0DDD520914C0230914D0240914E02C0
:1007600050914F02621B730B840B950B209150022A
:100770003091510240915202509153026217730717
:1007800084079507E8F00EDEC2D560934C027093A3
:100790004D0280934E0290934F02809154029091AB
:1007A0005502A0915602B09157020196A11DB11DAC
:1007B0008093540290935502A0935602B09357022F
:1007C0008AE00ED4892B29F24091540250915502AF
:1007D00060915602709157028BE595E02AE030E077
:1007E00061D780E053DD7BC28BE595E00E94790FF5
:1007F000C0970A9708F073C28BE595E00E949F0CA2
:10080000862F60933B021BD4BC018BE595E04AE048
:1008100050E0B4D764C28BE595E00E94790FC09791
:100820000A9708F05CC28BE595E00E949F0C862F2A
:1008300060933B0232DD53C28BE595E00E94790F55
:10084000C0970A9708F04BC28BE595E00E949F0C79
:10085000609345028BE595E00E94790F86349105FF
:1008600009F03DC28BE595E00E949F0C9B01AC0115
:10087000709347026093460240E050E060E472E407
:100880008FE090E00E948911209350023093510232
:1008900040935202509353022CD5609358027093A8
:1008A000590280935A0290935B0231D560934C02B7
:1008B00070934D0280934E0290934F0280E00AC0E5
:1008C000E82FF0E0DF01A25ABD4F1C92ED59FD4F19
:1008D00010828F5F8530A0F380915D0230E01FC0F1
:1008E000832F90E0FC0163E0EE0FFF1F6A95E1F7B4
:1008F000880F991FE80FF91FE20FF11DEE0FFF1F80
:10090000EE0FFF1FE759FD4F1082118212821382F2
:10091000242F422F4F5F4B3019F73F5F8AE035306D
:1009200010F420E0F6CF80935D0230935C021FEF5D
:1009300088EEE82E83E0F82EC4E0D0E079C0E7D45A
:1009400020914C0230914D0240914E0250914F0245
:10095000621B730B840B950B209150023091510256
:100960004091520250915302621773078407950712
:1009700008F45EC0CCD460934C0270934D02809317
:100980004E0290934F028091030110925C0230E07E
:10099000612F70E090E06827792743C0432F50E033
:1009A000CE01032E02C0880F991F0A94E2F7862316
:1009B0009723892B69F0DA01AD59BD4F8C918330B3
:1009C00038F0FA01E25AFD4F80818F5F80831C92DC
:1009D000FA01E25AFD4F2081FA01EE0FFF1FCA0112
:1009E000B3E0880F991FBA95E1F7E80FF91FE20FFE
:1009F000F11DEE0FFF1FEE0FFF1FE759FD4F808126
:100A00009181A281B3810196A11DB11D8083918343
:100A1000A283B383FA01ED59FD4F80818F5F8083FC
:100A20003F5F353008F4BACF30935C021091030178
:100A300060D4209158023091590240915A0250914D
:100A40005B02621B730B840B950B2091450230E017
:100A5000A9014E9D90014F9D300D5E9D300D1124DA
:100A6000442737FD4095542F261737074807590765
:100A700008F065CF10925C02C8E2D0E05EC0109230
:100A80005D0251C0222351F48BE595E069E072E0EC
:100A900092D620915D0280915C021FC030915C0271
:100AA0002930D1F4832F90E08C9FF0018D9FF00DC1
:100AB0009C9FF00D1124E759FD4F44A155A166A15B
:100AC00077A18BE595E02AE030E0DFD58BE595E076
:100AD0006DE072E072D622C0832F90E0FC0143E00B
:100AE000EE0FFF1F4A95E1F7880F991FE80FF91FD6
:100AF000E20FF11DEE0FFF1FEE0FFF1FE759FD4F35
:100B000040815181628173818BE595E02AE030E07C
:100B1000BCD58BE595E06BE072E04DD680915D022F
:100B20008F5F80935D0220915D022A3008F4AACF86
:100B300080915C028F5F80935C0280915C028530C3
:100B400008F49DCFCCC08BE595E00E94790FC0974B
:100B50000A9708F0C4C08BE595E0F1D660933B029C
:100B60008BE595E00E94790F8434910509F0B7C0B8
:100B70008BE595E0E4D66093440280913B0261E00E
:100B80004AD16091440280913B0270E08CD2A7C0B0
:100B90008BE595E00E94790FC0970A9708F09FC0F7
:100BA0008BE595E0CCD660933C0270933D02809338
:100BB0003E0290933F028BE595E00E94790F8634C8
:100BC000910509F08CC08BE595E0B9D69B01AC018D
:100BD000609340023093410280934202509343025B
:100BE00060E472E48FE090E00E946711209350026D
:100BF00030935102409352025093530280E03DDB08
:100C00008BE595E00E94990F8434910529F0853594
:100C1000910521F480E001C081E02FDB81E036DB2B
:100C200010925402109255021092560210925702DE
:100C30006ED360934C0270934D0280934E0290935A
:100C40004F0237C064D320914C0230914D02409145
:100C50004E0250914F02621B730B840B950B209137
:100C6000500230915102409152025091530262174A
:100C7000730784079507E8F095DB49D360934C022E
:100C800070934D0280934E0290934F0280915402D4
:100C900090915502A0915602B09157020196A11D64
:100CA000B11D8093540290935502A0935602B093C5
:100CB00057022091540230915502409156025091B2
:100CC000570280913C0290913D02A0913E02B0916A
:100CD0003F0282179307A407B50708F0B3CFEBDBF9
:100CE00005C08BE595E06FE072E067D5DF91CF91AD
:100CF0001F91FF90EF9008958BE595E040E052EC56
:100D000061E070E00E94E20E8AE060E084D08AE058
:100D100061E034D18BE060E07ED08BE061E02ED1E9
:100D200083E061E078D08FEF81B980930A0187B9C1
:100D30001092040188E261E06ED085E461E06BD03E
:100D400084E461E068D081E461E065D08FE361E034
:100D500062D089E261E05FD087E261E05CD083E449
:100D600061E059D082E461E056D080E461E053D084
:100D70008EE360E050D08CE360E04DD08BE360E028
:100D80004AD08AE360E047D089E360E044D08CE257
:100D900060E041D080E260E03ED08DE260E03BD098
:100DA0008FE160E038D08EE260E035D08EE160E027
:100DB00032D08CE261E0E2D080E261E0DFD08DE20F
:100DC00061E0DCD08FE161E0D9D08EE261E0D6D085
:100DD0008EE161E0D3D08DD26093480270934902D6
:100DE00080934A0290934B0280E050DA80E155DA1A
:100DF00012CB85E361E0C2D085E361E00CD08CB515
:100E000080618CBD8CB580648CBD84E361E003D0CF
:100E100083E361E000C0CF93DF93482F50E0CA0125
:100E20008C579E4FFC0134914E5C5E4FFA018491C9
:100E3000882369F190E0880F991FFC01EC51FF4F66
:100E4000A591B491FC01E250FF4FC591D491662366
:100E500051F42FB7F8948C91932F909589238C930C
:100E6000888189230BC0623061F42FB7F8948C918C
:100E7000932F909589238C938881832B88832FBF10
:100E800006C09FB7F8948C91832B8C939FBFDF9102
:100E9000CF910895893009F449C08A30A0F4843094
:100EA00051F1853040F4823079F1833000F58130A2
:100EB00009F063C026C0873079F1883098F5863014
:100EC00009F05BC025C08D3009F442C08E3028F493
:100ED0008B30B1F18C30C0F52DC0803109F442C0A7
:100EE000813109F445C08F3009F047C037C0809187
:100EF00080008F7703C0809180008F7D8093800079
:100F0000089584B58F7702C084B58F7D84BD089520
:100F10008091B0008F7703C08091B0008F7D809367
:100F2000B0000895809190008F7707C08091900065
:100F30008F7D03C080919000877F809390000895FB
:100F40008091A0008F7707C08091A0008F7D03C0A3
:100F50008091A000877F8093A00008958091200158
:100F60008F7703C0809120018F7D809320010895A9
:100F700080912001877F809320010895FF920F9335
:100F80001F93F62E482F50E0CA018A529E4FFC0153
:100F90002491CA018C579E4FFC0114914E5C5E4F08
:100FA000FA0104910023C1F0222311F0822F72DF95
:100FB000E02FF0E0EE0FFF1FE250FF4FA591B4913C
:100FC0009FB7F894FF2021F48C911095812302C0E3
:100FD0008C91812B8C939FBF1F910F91FF9008954F
:100FE0000F931F93482F50E0CA018A529E4FFC0175
:100FF0002491CA018C579E4FFC0104914E5C5E4FB8
:10100000FA011491112319F420E030E014C02223D6
:1010100011F0822F3FDF812F90E0880F991F885EAB
:101020009E4FFC01A591B4918C9120E030E080238B
:1010300011F021E030E0C9011F910F910895382F80
:10104000863308F0365320917B00832F8695869552
:10105000869590E08170907043E0880F991F4A95C3
:10106000E1F7277F282B20937B00377080911F02A8
:101070008295880F880F807C832B80937C008091E1
:101080007A00806480937A0080917A0086FDFCCF9C
:101090002091780040917900942F80E030E0282B57
:1010A000392BC90108951F93CF93DF93182FEB01BC
:1010B00061E0B1DE209709F4CAC0CF3FD10509F441
:1010C000C9C0E12FF0E0EA52FE4F8491893009F463
:1010D00066C08A30B0F48430F1F1853040F482305B
:1010E00059F1833070F5813009F0AEC020C08730EF
:1010F00009F443C0883008F048C0863009F0A4C025
:1011000034C08D3009F478C08E3038F48B3009F457
:101110005AC08C3008F066C04CC0803109F480C0E1
:10112000813109F487C08F3009F08EC06FC084B55B
:10113000806884BDC7BD91C084B5806284BDC8BDD0
:101140008CC080918000806880938000D09389005B
:10115000C093880082C0809180008062809380006C
:10116000D0938B00C0938A0078C08091B0008068D3
:101170008093B000C093B30070C08091B0008062D3
:101180008093B000C093B40068C0809190008068E4
:1011900080939000D0939900C09398005EC0809196
:1011A0009000806280939000D0939B00C0939A003F
:1011B00054C080919000886080939000D0939D00EF
:1011C000C0939C004AC08091A00080688093A000DA
:1011D0008091A0008F7B8093A000D093A900C09342
:1011E000A8003BC08091A00080628093A000D093B3
:1011F000AB00C093AA0031C08091A00088608093AA
:10120000A000D093AD00C093AC0027C08091200116
:10121000806880932001D0932901C09328011DC0CC
:1012200080912001806280932001D0932B01C09394
:101230002A0113C080912001886080932001D093FF
:101240002D01C0932C0109C0C038D1051CF4812F99
:1012500060E002C0812F61E091DEDF91CF911F91AC
:1012600008951F920F920FB60F9211242F933F9360
:101270008F939F93AF93BF938091360390913703E1
:10128000A0913803B091390330913A030196A11D22
:10129000B11D232F2D5F2D3720F02D570196A11D55
:1012A000B11D20933A038093360390933703A093A4
:1012B0003803B09339038091320390913303A091A6
:1012C0003403B09135030196A11DB11D8093320303
:1012D00090933303A0933403B0933503BF91AF9140
:1012E0009F918F913F912F910F900FBE0F901F9064
:1012F00018958FB7F89420913603309137034091B9
:101300003803509139038FBFB901CA0108959FB7BF
:10131000F89420913203309133034091340350917B
:10132000350386B5A89B06C08F3F21F02F5F3F4F46
:101330004F4F5F4F9FBF542F432F322F2227280F2D
:10134000311D411D511D82E0220F331F441F551FC7
:101350008A95D1F7B901CA0108959B01AC017FB705
:10136000F8948091320390913303A0913403B091AB
:10137000350366B5A89B05C06F3F19F00196A11D06
:10138000B11D7FBFBA2FA92F982F8827860F911DD7
:10139000A11DB11D62E0880F991FAA1FBB1F6A958E
:1013A000D1F7BC012DC0FFB7F89480913203909122
:1013B0003303A0913403B0913503E6B5A89B05C073
:1013C000EF3F19F00196A11DB11DFFBFBA2FA92F44
:1013D000982F88278E0F911DA11DB11DE2E0880F67
:1013E000991FAA1FBB1FEA95D1F7861B970B885E32
:1013F0009340C8F2215030404040504068517C4FEB
:10140000211531054105510571F60895019739F00F
:10141000880F991F880F991F02970197F1F7089578
:10142000789484B5826084BD84B5816084BD85B5BF
:10143000826085BD85B5816085BDEEE6F0E0808186
:1014400081608083E1E8F0E01082808182608083A7
:10145000808181608083E0E8F0E08081816080832A
:10146000E1EBF0E0808184608083E0EBF0E080815C
:1014700081608083E1E9F0E0808182608083808107
:1014800081608083E0E9F0E0808181608083E1EA2F
:10149000F0E0808182608083808181608083E0EAE7
:1014A000F0E0808181608083E1E2F1E08081826010
:1014B0008083808181608083E0E2F1E080818160CF
:1014C0008083EAE7F0E080818460808380818260AD
:1014D0008083808181608083808180688083109296
:1014E000C1000895CF93DF939BDF06DCC1EADDE006
:1014F0000E9461022097E1F324D3FACFCF92DF92CA
:10150000EF92FF920F931F93CF93DF937C016B01B8
:101510008A01C0E0D0E00FC0D6016D916D01D70106
:10152000ED91FC910190F081E02DC7011995C80F54
:10153000D91F015010400115110571F7CE01DF913F
:10154000CF911F910F91FF90EF90DF90CF90089572
:10155000EF92FF920F931F938C01DC01ED91FC91B0
:101560000190F081E02D6DE019957C01D801ED919D
:10157000FC910190F081E02DC8016AE019959C0171
:101580002E0D3F1DC9011F910F91FF90EF900895FF
:10159000CF93DF93EC016115710519F420E030E081
:1015A0000FC0DB010D900020E9F71197A61BB70BC8
:1015B000E881F9810280F381E02DAD0119959C014C
:1015C000C901DF91CF9108954F925F927F928F92E0
:1015D0009F92AF92BF92CF92DF92EF92FF920F93C2
:1015E0001F93DF93CF93CDB7DEB7A1970FB6F894D3
:1015F000DEBF0FBECDBF2C01742ECB01223008F40C
:101600002AE019A231E2C32ED12CCC0EDD1E822E8F
:101610009924AA24BB24672D752FA501940157D6C0
:1016200079018A01C801B701A501940131D6472D7E
:10163000461B0894C108D1084A3014F4405D01C02B
:10164000495CF6014083E114F1040105110521F024
:101650007E2C5F2DC801DFCFC201B60199DFA196B4
:101660000FB6F894DEBF0FBECDBFCF91DF911F91B3
:101670000F91FF90EF90DF90CF90BF90AF909F9031
:101680008F907F905F904F900895DC012115310578
:1016900041F4ED91FC910190F081E02D642F1995BA
:1016A000089592CFEF92FF920F931F937C01EDDF8D
:1016B0008C01C7014DDF9C01200F311FC9011F9113
:1016C0000F91FF90EF900895CF92DF92EF92FF92EB
:1016D0000F931F936C01E62E9A01FF2400E010E0A7
:1016E000B801A701D2DF8C01C60132DF080F191F34
:1016F000C8011F910F91FF90EF90DF90CF90089558
:10170000CF92DF92EF92FF920F931F93CF93DF93CD
:10171000EC016A017B012115310541F4E881F98171
:101720000190F081E02D642F19951DC02A303105FC
:10173000C9F477FF16C0E881F9810190F081E02DAE
:101740006DE219958C0144275527BA014C195D09A2
:101750006E097F09CE012AE037DF9801280F391F73
:1017600003C02AE031DF9C01C901DF91CF911F91B5
:101770000F91FF90EF90DF90CF900895CF92DF927E
:10178000EF92FF920F931F936C017B019A01002748
:10179000F7FC0095102FB801A701B2DF8C01C6013C
:1017A000D7DE080F191FC8011F910F91FF90EF900E
:1017B000DF90CF900895ECCE0895EF92FF920F93B3
:1017C0001F937C01E5DE8C01C701C2DE080F191FE3
:1017D000C8011F910F91FF90EF900895CF93DF9371
:1017E000EC0187DD688779878A879B87E881F981A3
:1017F0000084F185E02DCE0119959C0197FF14C05E
:1018000078DD288539854A855B85621B730B840BDF
:10181000950B2C813D814E815F8162177307840790
:10182000950720F32FEF3FEFC901DF91CF91089586
:10183000CF93DF93EC01CE01D1DF9C0197FD0EC069
:101840008D32910559F0C0970A9740F0E881F981EF
:101850000680F781E02DCE011995EDCFC901DF910A
:10186000CF9108959F92AF92BF92CF92DF92EF9265
:10187000FF920F931F93CF93DF936C01B62ED8DFA7
:10188000EC0197FF04C0EE24FF2487014AC099248D
:10189000EE24FF248701AB2CBB24A7FCB094CA150F
:1018A000DB0521F1CD32D10519F4992493941EC0A2
:1018B000CE01C0970A97D0F4C801B7012AE030E002
:1018C00040E050E0E5D47B018C01CE01AA2797FDD2
:1018D000A095BA2FE80EF91E0A1F1B1F80ED9FEF7F
:1018E000AFEFBFEFE80EF91E0A1F1B1FD601ED91E7
:1018F000FC910680F781E02DC6011995C6016EDFC7
:10190000EC01C0970A9758F2CA15DB0541F29920FD
:1019100041F010950095F094E094E11CF11C011D3C
:10192000111DB701C801DF91CF911F910F91FF9059
:10193000EF90DF90CF90BF90AF909F90089561E0BF
:1019400091CF08951F920F920FB60F920BB60F9280
:1019500011242F933F934F938F939F93EF93FF9374
:101960008091C00082FD1DC04091C60020917B0384
:1019700030917C032F5F3F4F2F73307080917D0338
:1019800090917E032817390771F0E0917B03F09165
:101990007C03E55CFC4F408330937C0320937B0306
:1019A00002C08091C600FF91EF919F918F914F915E
:1019B0003F912F910F900BBE0F900FBE0F901F9075
:1019C000189508951F920F920FB60F920BB60F92B3
:1019D00011242F933F934F938F939F93EF93FF93F4
:1019E0008091C80082FD1DC04091CE00209103046B
:1019F000309104042F5F3F4F2F73307080910504A6
:101A0000909106042817390771F0E0910304F091D2
:101A10000404ED53FC4F40833093040420930304EB
:101A200002C08091CE00FF91EF919F918F914F91D5
:101A30003F912F910F900BBE0F900FBE0F901F90F4
:101A4000189508951F920F920FB60F920BB60F9232
:101A500011242F933F934F938F939F93EF93FF9373
:101A60008091D00082FD1DC04091D60020918B0452
:101A700030918C042F5F3F4F2F73307080918D0415
:101A800090918E042817390771F0E0918B04F09142
:101A90008C04E55BFB4F408330938C0420938B04D4
:101AA00002C08091D600FF91EF919F918F914F914D
:101AB0003F912F910F900BBE0F900FBE0F901F9074
:101AC000189508951F920F920FB60F920BB60F92B2
:101AD00011242F933F934F938F939F93EF93FF93F3
:101AE0008091300182FD1DC0409136012091130587
:101AF000309114052F5F3F4F2F7330708091150583
:101B0000909116052817390771F0E0911305F091AF
:101B10001405ED52FB4F40833093140520931305B9
:101B200002C080913601FF91EF919F918F914F916B
:101B30003F912F910F900BBE0F900FBE0F901F90F3
:101B40001895E0916705F0916805E05CFF4F819181
:101B5000919120813181821B930B8F739070892B1F
:101B600009F0EFDEE0918905F0918A05E05CFF4F16
:101B70008191919120813181821B930B8F739070A1
:101B8000892B09F01EDFE091AB05F091AC05E05C1C
:101B9000FF4F8191919120813181821B930B8F7333
:101BA0009070892B09F04DDFE091CD05F091CE05C5
:101BB000E05CFF4F8191919120813181821B930BD9
:101BC0008F739070892B09F07CCF08951F920F922C
:101BD0000FB60F920BB60F9211242F933F938F9352
:101BE0009F93EF93FF932091BF033091C0038091A7
:101BF000C1039091C2032817390731F48091C100C5
:101C00008F7D8093C10014C0E091C103F091C203A5
:101C1000E158FC4F20818091C1039091C20301964D
:101C20008F7390709093C2038093C1032093C6007A
:101C3000FF91EF919F918F913F912F910F900BBE4C
:101C40000F900FBE0F901F9018951F920F920FB616
:101C50000F920BB60F9211242F933F938F939F9364
:101C6000EF93FF93209147043091480480914904F9
:101C700090914A042817390731F48091C9008F7D6B
:101C80008093C90014C0E0914904F0914A04E95FCF
:101C9000FB4F20818091490490914A0401968F73F3
:101CA000907090934A04809349042093CE00FF9152
:101CB000EF919F918F913F912F910F900BBE0F90BD
:101CC0000FBE0F901F9018951F920F920FB60F9294
:101CD0000BB60F9211242F933F938F939F93EF9303
:101CE000FF932091CF043091D0048091D104909142
:101CF000D2042817390731F48091D1008F7D809369
:101D0000D10014C0E091D104F091D204E157FB4F0F
:101D100020818091D1049091D20401968F739070AC
:101D20009093D2048093D1042093D600FF91EF9139
:101D30009F918F913F912F910F900BBE0F900FBEEF
:101D40000F901F9018951F920F920FB60F920BB61F
:101D50000F9211242F933F938F939F93EF93FF93B1
:101D600020915705309158058091590590915A0559
:101D70002817390731F4809131018F7D809331012B
:101D800014C0E0915905F0915A05E95EFA4F20819F
:101D90008091590590915A0501968F739070909398
:101DA0005A058093590520933601FF91EF919F9139
:101DB0008F913F912F910F900BBE0F900FBE0F9000
:101DC0001F901895AF92BF92DF92EF92FF920F9300
:101DD0001F93CF93DF93EC017A018B01DD24403018
:101DE00081EE580780E0680780E0780711F0DD2475
:101DF000D39491E0A92EB12CEC89FD89DD2069F006
:101E0000C50108A002C0880F991F0A94E2F78083D9
:101E100060E079E08DE390E005C0108260E874E84E
:101E20008EE190E0A801970152D22150304040400D
:101E30005040569547953795279580E120303807D3
:101E400020F0DD2011F0DD24D7CFE889F989308337
:101E5000EA89FB89208319A2EE89FF89408121E06C
:101E600030E0C9010C8C02C0880F991F0A94E2F778
:101E7000482B4083EE89FF894081C9010D8C02C047
:101E8000880F991F0A94E2F7482B4083EE89FF8957
:101E90004081C9010E8C02C0880F991F0A94E2F795
:101EA000482B4083EE89FF8980810F8C02C0220F6E
:101EB000331F0A94E2F7209528232083DF91CF91E6
:101EC0001F910F91FF90EF90DF90BF90AF9008951A
:101ED000DC011C96ED91FC911D97E05CFF4F219178
:101EE000319180819181281B390B2F733070C9018A
:101EF0000895DC011C96ED91FC911D97E05CFF4F6D
:101F000020813181E054F040DF01AE5BBF4F8D9105
:101F10009C9111972817390719F42FEF3FEF07C04D
:101F20008D919C91E80FF91F8081282F30E0C90125
:101F30000895DC011C96ED91FC911D97E05CFF4F2C
:101F400020813181E054F040DF01AE5BBF4F8D91C5
:101F50009C9111972817390719F42FEF3FEF10C004
:101F60008D919C911197E80FF91F20818D919C9183
:101F7000119701968F73907011969C938E9330E019
:101F8000C9010895DC0191968C919197882339F0CD
:101F90005496ED91FC915597808186FFF9CF9196EB
:101FA0001C920895CF93DF93EC01EE85FF85E05CF2
:101FB000FF4F20813181E054F0402F5F3F4F2F735E
:101FC0003070DF01AE5BBF4F8D919C911197281748
:101FD0003907D1F3E05CFF4F80819181E054F040FC
:101FE000E80FF91F6083EE85FF85E05CFF4F3183CA
:101FF0002083EE89FF89208181E090E00F8C02C070
:10200000880F991F0A94E2F7282B208381E089A387
:10201000EC89FD8980818064808381E090E0DF919C
:10202000CF9108951F9310925E0510925D0528EEE2
:1020300033E040E050E020935F053093600540932B
:102040006105509362056EE272E070935C056093E7
:102050005B058BE393E090936805809367058FE7BA
:1020600093E090936A058093690585EC90E09093E6
:102070006C0580936B0584EC90E090936E058093E3
:102080006D0580EC90E09093700580936F0581EC76
:1020900090E0909372058093710582EC90E09093AC
:1020A00074058093730586EC90E090937605809399
:1020B000750514E010937705B3E0B0937805A7E0B9
:1020C000A0937905F5E0F0937A05E1E0E0937B05D4
:1020D0001092800510927F05209381053093820530
:1020E000409383055093840570937E0560937D052E
:1020F00083EC93E090938A058093890587E094E0D0
:1021000090938C0580938B058DEC90E090938E05D9
:1021100080938D058CEC90E09093900580938F05D3
:1021200088EC90E0909392058093910589EC90E083
:1021300090939405809393058AEC90E09093960594
:10214000809395058EEC90E0909398058093970589
:1021500010939905B0939A05A0939B05F0939C0565
:10216000E0939D051092A2051092A1052093A3056E
:102170003093A4054093A5055093A6057093A00540
:1021800060939F058BE494E09093AC058093AB053E
:102190008FE894E09093AE058093AD0585ED90E0D7
:1021A0009093B0058093AF0584ED90E09093B205D5
:1021B0008093B10580ED90E09093B4058093B305D2
:1021C00081ED90E09093B6058093B50582ED90E0A7
:1021D0009093B8058093B70586ED90E09093BA058B
:1021E0008093B9051093BB05B093BC05A093BD05C2
:1021F000F093BE05E093BF051092C4051092C3058D
:102200002093C5053093C6054093C7055093C80574
:102210007093C2056093C10583ED94E09093CE0561
:102220008093CD0587E195E09093D0058093CF050D
:1022300085E391E09093D2058093D10584E391E00A
:102240009093D4058093D30580E391E09093D605D5
:102250008093D50581E391E09093D8058093D705CD
:1022600082E391E09093DA058093D90586E391E0CB
:102270009093DC058093DB051093DD05B093DE05BC
:10228000A093DF05F093E005E093E1051F91089529
:10229000629FD001739FF001829FE00DF11D649F4A
:1022A000E00DF11D929FF00D839FF00D749FF00DD6
:1022B000659FF00D9927729FB00DE11DF91F639F77
:1022C000B00DE11DF91FBD01CF0111240895A1E258
:1022D0001A2EAA1BBB1BFD010DC0AA1FBB1FEE1FA0
:1022E000FF1FA217B307E407F50720F0A21BB30BEB
:1022F000E40BF50B661F771F881F991F1A9469F767
:1023000060957095809590959B01AC01BD01CF01C2
:10231000089597FB092E05260ED057FD04D0D7DF70
:102320000AD0001C38F450954095309521953F4FC8
:102330004F4F5F4F0895F6F7909580957095619592
:102340007F4F8F4F9F4F0895EE0FFF1F0590F49121
:10235000E02D199485FD07C08062911104C081565B
:102360008A51E0F70895992788270895F894FFCFB8
:102370006F6B007374617274007B002C007D0055DC
:102380006E6B6E6F776E20636F6D6D616E640001B2
:102390008787878787040503000100000000D20FAC
:0A23A0007E0A680F990F790FC20F33
:00000001FF
