:100000001AC1000045C1000043C1000041C1000009
:100010003FC100003DC100003BC1000039C10000EC
:1000200037C1000035C1000033C1000031C10000FC
:100030002FC100002DC100002BC1000029C100000C
:1000400027C1000025C1000023C1000021C100001C
:100050001FC100001DC100001BC10000D5C600006B
:1000600017C100000C946C0A0C94B00B11C1000075
:100070000FC100000DC100000BC1000009C100004C
:1000800007C1000005C1000003C1000001C100005C
:100090000C94AC0A0C94EF0BFBC00000F9C00000FC
:1000A000F7C00000F5C00000F3C00000F1C0000080
:1000B000EFC00000EDC00000EBC00000E9C0000090
:1000C000E7C00000E5C00000E3C000000C94EC0AAB
:1000D0000C942E0CDDC000000C942C0B0C946D0CB9
:1000E000D7C0000000002100240027002A002D00B6
:1000F0003000330001010000040107010A01000083
:100100002200250028002B002E00310034000201BF
:100110000000050108010B0100002000230026005B
:1001200029002C002F00320000010000030106010D
:10013000090105050505070508080808020202026D
:100140000A0A080804040404010101010101010173
:100150000303030303030303040707070C0C0C0C3E
:100160000C0C0C0C02020202060606060606060627
:100170000B0B0B0B0B0B0B0B07070A0A0A0A0A0ADD
:1001800005050504040408080102102020080810D1
:1001900020401020408002010201080402010102F7
:1001A00004081020408080402010080402018004D0
:1001B000020180402010080402010804020101022B
:1001C000040810204080010204081020408010081C
:1001D000040880102040044080102040048000006B
:1001E000090A02080B0C0D070603040100000000B9
:1001F00000000000000000000000000000000000FF
:100200000000000000000000000011100F000000BE
:1002100000000000000000000000000000000000DE
:1002200000000000000000000000000000000000CE
:1002300000000000DC0D11241FBECFEFD1E2DEBFB5
:10024000CDBF00E00CBF12E0A0E0B2E0EAE6F3E2CE
:1002500000E00BBF02C007900D92A232B107D9F7A0
:100260001BBE15E0A2E2B2E001C01D92A036B107AC
:10027000E1F712E0C6E3D2E004C02297FE010E943B
:10028000A311C433D107C9F70E9437110C94B311DD
:10029000B7CE882311F08FEF01C088E380930B0164
:1002A0000895882311F012B8089588EF82B908954F
:1002B000823081F1833020F4813009F0A2C007C080
:1002C000843009F44EC0803109F09BC072C088E2CE
:1002D00060E00E940A0A89E260E00E940A0A85E45E
:1002E00060E00E940A0A87E260E00E940A0A84E451
:1002F00060E00E940A0A83E460E00E940A0A81E446
:1003000060E00E940A0A82E460E00E940A0A8FE329
:1003100060E022C088E261E00E940A0A89E260E0AF
:100320000E940A0A85E461E00E940A0A87E260E00E
:100330000E940A0A84E461E00E940A0A83E460E001
:100340000E940A0A81E461E00E940A0A82E460E0F5
:100350000E940A0A8FE361E00E940A0A80E460E0DA
:1003600026C088E260E00E940A0A89E261E00E94F9
:100370000A0A85E460E00E940A0A87E261E00E94BE
:100380000A0A84E460E00E940A0A83E461E00E94B1
:100390000A0A81E460E00E940A0A82E461E00E94A5
:1003A0000A0A8FE360E00E940A0A80E461E00C948C
:1003B0000A0A88E261E00E940A0A89E261E00E947A
:1003C0000A0A85E461E00E940A0A87E261E00E946D
:1003D0000A0A84E461E00E940A0A83E461E00E9460
:1003E0000A0A81E461E00E940A0A82E461E00E9454
:1003F0000A0A8FE361E00E940A0A80E461E00C943B
:100400000A0A08958FEF88B981E090E0D2D580EE96
:1004100088B90895863441F1873474F48334F1F057
:1004200084342CF48134B1F0823471F515C08434F5
:10043000B9F0853449F516C08A34E9F08B342CF4D0
:100440008734A1F0883401F513C08B34B9F08C34B3
:10045000D9F417C080B1089583B1089586B1089585
:1004600089B108958CB108958FB1089582B308952C
:100470008091000108958091030108958091060103
:100480000895809109010895089588ED94E060E051
:1004900072E00C9471101F93CF93DF938091210130
:1004A000887F8160809321018EE261E000D78EE237
:1004B00062E870E01ED68DE261E0F9D68DE262E876
:1004C00070E017D68CE261E0F2D68CE262E870E070
:1004D00010D68EE0D1D7892B51F5809149028F5FDC
:1004E00080934902823018F1D7D420912B023091A9
:1004F0002C0240912D0250912E02621B730B840B33
:10050000950B685E73408040904088F088ED94E0E1
:1005100063E072E00E94711010924902BDD46093B2
:100520002B0270932C0280932D0290932E0288ED63
:1005300094E00E94320D892B09F40DC488ED94E0FB
:100540000E94630D809322026AE070E080E090E0F8
:10055000D7D480912202803509F413C3813584F405
:10056000833409F433C3843424F4813409F0F3C3AD
:1005700028C0883409F48AC08D3409F0ECC373C1F3
:10058000823581F182353CF0853509F45BC18735D0
:1005900009F0E1C35AC088ED94E00E94430DC09772
:1005A0000A9708F0D7C388ED94E00E943511862F92
:1005B0006093230260E07BD68091230261E02AD71A
:1005C00039C088ED94E00E94430DC0970A9708F067
:1005D000C1C388ED94E00E943511862F60932302F9
:1005E00054D52BC088ED94E00E94430D0E94A911C0
:1005F000892B79F088ED94E00E94630D8093AE0220
:1006000009DF682F88ED94E04AE050E00E94F80F7F
:10061000A1C388ED94E00E94430DC0970A9708F0AB
:1006200099C388ED94E00E943511862F60932302D0
:1006300060E03DD6809123021FD7BC0188ED94E095
:100640004AE050E00E94521082C388ED94E00E947C
:10065000430DC0970A9708F07DC388ED94E00E948F
:100660003511862F6093230261E021D688ED94E056
:100670000E94630D8834910529F08C34910509F0AE
:1006800066C361C38091230261E060C388ED94E09A
:100690000E94430DC0970A9708F0D1C088ED94E0FE
:1006A0000E9435119B01AC017093270260932602D2
:1006B000442737FD4095542F60E472E48FE090E0CA
:1006C0000E948611309334022093330281E0E9DDE9
:1006D00010923502109236021092370210923802B0
:1006E000E9D360932F02709330028093310290938C
:1006F00032028FE0C1D6892B09F44FC080E0C9DDFA
:1007000035C08091350290913602A0913702B091A8
:1007100038020196A11DB11D8093350290933602D7
:10072000A0933702B0933802C5D320912F023091A5
:1007300030024091310250913202621B730B840BE4
:10074000950B209133023091340240E050E0621763
:1007500073078407950750F055DEACD360932F02E2
:100760007093300280933102909332028FE084D6EE
:10077000892B69F48091350290913602A09137025D
:10078000B0913802895E9340A040B04030F48FE0D1
:1007900073D6892B09F4B5CFC7CF109235021092CA
:1007A0003602109237021092380281E072DD35C0B5
:1007B00081D320912F02309130024091310250912B
:1007C0003202621B730B840B950B20913302309124
:1007D000340240E050E06217730784079507E8F0A1
:1007E00011DE68D360932F02709330028093310240
:1007F000909332028091350290913602A091370297
:10080000B09138020196A11DB11D809335029093DD
:100810003602A0933702B09338028FE02DD6892B91
:1008200039F2409135025091360260913702709151
:10083000380288ED94E02AE030E00E94E60F80E084
:1008400030DD88C288ED94E00E94430DC0970A977E
:1008500008F080C288ED94E00E943511862F6093E5
:10086000230226DD74C288ED94E00E94430DC097F8
:100870000A9708F06FC288ED94E00E9435116093EA
:10088000230288ED94E00E94430D8634910509F01F
:1008900061C288ED94E00E9435119B01AC01709318
:1008A0002A0260932902442737FD4095542F60E4C3
:1008B00072E48FE090E00E9486113093340220931E
:1008C0003302EAD26093390270933A0280933B027A
:1008D00090933C0210923D020CC0E82FF0E0DF0143
:1008E000A15CBD4F1C92EC5BFD4F10828F5F80932B
:1008F0003D0280913D02853080F310923D0280914F
:100900003E0244E150E037C0822F90E0849FD00146
:10091000859FB00D949FB00D1124A65BBD4F1D9215
:100920001D921D921C921397FC01EE0FFF1FEE0FFC
:10093000FF1FE80FF91FEE0FFF1FEE0FFF1FE25B17
:10094000FD4F108211821282138218961D921D9201
:100950001D921C921B971C961D921D921D921C921B
:100960001F9750961D921D921D921C9253972F5FB8
:1009700020933D0285E020913D02253028F28093AE
:100980003E028091230260E092D48091230261E0D4
:1009900041D58091230270D5892BD9F78BD26093F2
:1009A0002F027093300280933102909332021CEF39
:1009B000C4E0D0E077C07ED220912F023091300287
:1009C0004091310250913202621B730B840B950BE4
:1009D000209133023091340240E050E062177307F7
:1009E0008407950708F45EC065D260932F02709368
:1009F00030028093310290933202509103015C7F68
:100A000010923D02612F70E0852F90E068277927D2
:100A100043C0F0E0CE010E2E02C0880F991F0A9449
:100A2000E2F786239723892B61F0DF01AC5BBD4F92
:100A30008C91823030F0E15CFD4F80818F5F80834C
:100A40001C9240913D02242F30E0F901E15CFD4F02
:100A50008081F901EE0FFF1FEE0FFF1FE20FF31F62
:100A6000E80FF11DEE0FFF1FEE0FFF1FE65BFD4FBE
:100A700080819181A281B3810196A11DB11D8083E6
:100A80009183A283B3832C5B3D4FF90180818F5FFB
:100A900080834F5F40933D02E0913D02E53008F4D2
:100AA000B8CF152F80912302E7D4892B09F483CF87
:100AB00010923D02C4E1D0E05EC010923E0251C0EF
:100AC000222359F488ED94E069E072E00E946F10EF
:100AD00020913E0280913D021FC080913D02243052
:100AE000D9F490E08C9FF0018D9FF00D9C9FF00D4C
:100AF0001124E65BFD4F408951896289738988ED35
:100B000094E02AE030E00E94D90F88ED94E06DE097
:100B100072E00E94711020C090E0FC01EE0FFF1FF8
:100B2000EE0FFF1FE80FF91FE20FF11DEE0FFF1F81
:100B3000EE0FFF1FE65BFD4F4081518162817381A3
:100B400088ED94E02AE030E00E94D90F88ED94E02F
:100B50006BE072E00E946F1080913E028F5F809385
:100B60003E0220913E02253008F4AACF80913D023A
:100B70008F5F80933D0280913D02853008F49DCFC8
:100B8000E6C088ED94E07FD7C0970A9708F0E2C0EE
:100B900088ED94E00E9435116093230288ED94E083
:100BA00072D78434910509F0D5C088ED94E00E9495
:100BB0003511609328028091230261E078D360911F
:100BC00028028091230270E094D2C1C088ED94E0A5
:100BD0005AD7C0970A9708F0BDC088ED94E00E94EC
:100BE0003511709325026093240288ED94E04BD771
:100BF0008634910509F0AEC088ED94E00E9435116D
:100C00009B01AC017093270260932602442737FDB5
:100C10004095542F60E472E48FE090E00E948611CA
:100C2000309334022093330280E033DB88ED94E08C
:100C30004AD78434910529F08535910521F480E067
:100C400001C081E026DB81E02CDB1092350210929E
:100C50003602109237021092380288ED94E013D7D2
:100C60008035910591F488ED94E00E943511862F2E
:100C70006093230261E01BD38091230261E0CAD319
:100C800064E170E080E090E03BD114D160932F02EA
:100C900070933002809331029093320235C00AD1B2
:100CA00020912F0230913002409131025091320256
:100CB000621B730B840B950B20913302309134022D
:100CC00040E050E06217730784079507E8F09ADB6D
:100CD000F1D060932F027093300280933102909391
:100CE00032028091350290913602A0913702B09184
:100CF00038020196A11DB11D8093350290933602F2
:100D0000A0933702B093380280912402909125027B
:100D1000AA2797FDA095BA2F20913502309136026F
:100D2000409137025091380282179307A407B50704
:100D300008F0B5CF809123028F3F61F064E170E04D
:100D400080E090E0DDD08091230260E063D38FEFFC
:100D5000809323029ADBDF91CF911F9108950F9327
:100D60001F9308ED14E0C80140E052EC61E070E030
:100D7000F3D580E096DA80E19BDA8FE060E097D2ED
:100D80008FE061E047D38EE060E091D28EE061E0D9
:100D900041D383E061E08BD288EF81B987EC809307
:100DA0000A018FE187B91092040188E261E07FD2E5
:100DB00085E461E07CD284E461E079D281E461E0A1
:100DC00076D28FE361E073D289E261E070D287E28C
:100DD00061E06DD283E461E06AD282E461E067D2CF
:100DE00080E461E064D258D060932B0270932C02AF
:100DF00080932D0290932E02C8016FE072E00E9452
:100E000071101F910F9108951F920F920FB60F92BC
:100E100011242F933F938F939F93AF93BF93809110
:100E2000B3029091B402A091B502B091B602309194
:100E3000B7020196A11DB11D232F2D5F2D3720F084
:100E40002D570196A11DB11D2093B7028093B302C7
:100E50009093B402A093B502B093B6028091AF0212
:100E60009091B002A091B102B091B2020196A11D81
:100E7000B11D8093AF029093B002A093B102B093E2
:100E8000B202BF91AF919F918F913F912F910F909F
:100E90000FBE0F901F9018958FB7F8942091B30252
:100EA0003091B4024091B5025091B6028FBFB901A2
:100EB000CA0108959FB7F8942091AF023091B00213
:100EC0004091B1025091B20286B5A89B06C08F3FF7
:100ED00021F02F5F3F4F4F4F5F4F9FBF542F432F46
:100EE000322F2227280F311D411D511D82E0220F74
:100EF000331F441F551F8A95D1F7B901CA010895C0
:100F00009B01AC017FB7F8948091AF029091B00241
:100F1000A091B102B091B20266B5A89B05C06F3F27
:100F200019F00196A11DB11D7FBFBA2FA92F982FCF
:100F30008827860F911DA11DB11D62E0880F991FA2
:100F4000AA1FBB1F6A95D1F7BC012DC0FFB7F8944B
:100F50008091AF029091B002A091B102B091B20223
:100F6000E6B5A89B05C0EF3F19F00196A11DB11D84
:100F7000FFBFBA2FA92F982F88278E0F911DA11D73
:100F8000B11DE2E0880F991FAA1FBB1FEA95D1F798
:100F9000861B970B885E9340C8F22150304040403A
:100FA000504068517C4F211531054105510571F6BE
:100FB0000895019739F0880F991F880F991F02979C
:100FC0000197F1F70895789484B5826084BD84B563
:100FD000816084BD85B5826085BD85B5816085BD34
:100FE000EEE6F0E0808181608083E1E8F0E010824D
:100FF000808182608083808181608083E0E8F0E08E
:10100000808181608083E1EBF0E080818460808377
:10101000E0EBF0E0808181608083E1E9F0E08081B5
:1010200082608083808181608083E0E9F0E080815C
:1010300081608083E1EAF0E080818260808380814A
:1010400081608083E0EAF0E0808181608083E1E27A
:10105000F1E0808182608083808181608083E0E232
:10106000F1E0808181608083EAE7F0E08081846044
:1010700080838081826080838081816080838081A1
:10108000806880831092C1000895382F863308F05D
:10109000365320917B00832F86958695869590E028
:1010A0008170907043E0880F991F4A95E1F7277F80
:1010B000282B20937B003770809111028295880F36
:1010C000880F807C832B80937C0080917A008064E1
:1010D00080937A0080917A0086FDFCCF2091780081
:1010E00040917900942F80E030E0282B392BC90102
:1010F00008951F93CF93DF93182FEB0161E0D7D0B2
:10110000209709F4CAC0CF3FD10509F4C9C0E12F27
:10111000F0E0E252FE4F8491893009F466C08A30D3
:10112000B0F48430F1F1853040F4823059F18330ED
:1011300070F5813009F0AEC020C0873009F443C09B
:10114000883008F048C0863009F0A4C034C08D3023
:1011500009F478C08E3038F48B3009F45AC08C30E2
:1011600008F066C04CC0803109F480C0813109F4B8
:1011700087C08F3009F08EC06FC084B5806884BD91
:10118000C7BD91C084B5806284BDC8BD8CC080914C
:101190008000806880938000D0938900C09388008D
:1011A00082C080918000806280938000D0938B0009
:1011B000C0938A0078C08091B00080688093B000AE
:1011C000C093B30070C08091B00080628093B00083
:1011D000C093B40068C080919000806880939000B4
:1011E000D0939900C09398005EC080919000806277
:1011F00080939000D0939B00C0939A0054C080913C
:101200009000886080939000D0939D00C0939C00D4
:101210004AC08091A00080688093A0008091A000C7
:101220008F7B8093A000D093A900C093A8003BC0FF
:101230008091A00080628093A000D093AB00C09307
:10124000AA0031C08091A00088608093A000D09354
:10125000AD00C093AC0027C08091200180688093CE
:101260002001D0932901C09328011DC08091200145
:10127000806280932001D0932B01C0932A0113C078
:1012800080912001886080932001D0932D01C0932C
:101290002C0109C0C038D1051CF4812F60E002C0C8
:1012A000812F61E0B7D0DF91CF911F910895CF9347
:1012B000DF93482F50E0CA0188579E4FFC013491BC
:1012C0004E5C5E4FFA018491882369F190E0880FAB
:1012D000991FFC01EC51FF4FA591B491FC01E25024
:1012E000FF4FC591D491662351F42FB7F8948C9198
:1012F000932F909589238C93888189230BC062302A
:1013000061F42FB7F8948C91932F909589238C9347
:101310008881832B88832FBF06C09FB7F8948C9158
:10132000832B8C939FBFDF91CF910895893009F46F
:1013300049C08A30A0F4843051F1853040F48230C5
:1013400079F1833000F5813009F063C026C0873021
:1013500079F1883098F5863009F05BC025C08D3072
:1013600009F442C08E3028F48B30B1F18C30C0F5D6
:101370002DC0803109F442C0813109F445C08F305D
:1013800009F047C037C0809180008F7703C08091FB
:1013900080008F7D80938000089584B58F7702C090
:1013A00084B58F7D84BD08958091B0008F7703C090
:1013B0008091B0008F7D8093B0000895809190005F
:1013C0008F7707C0809190008F7D03C0809190003F
:1013D000877F8093900008958091A0008F7707C049
:1013E0008091A0008F7D03C08091A000877F8093B3
:1013F000A0000895809120018F7703C08091200183
:101400008F7D80932001089580912001877F8093B4
:1014100020010895FF920F931F93F62E482F50E05E
:10142000CA0182529E4FFC012491CA0188579E4FE7
:10143000FC0114914E5C5E4FFA0104910023C1F04F
:10144000222311F0822F72DFE02FF0E0EE0FFF1F5A
:10145000E250FF4FA591B4919FB7F894FF2021F47B
:101460008C911095812302C08C91812B8C939FBF0E
:101470001F910F91FF9008950F931F93482F50E0F5
:10148000CA0182529E4FFC012491CA0188579E4F87
:10149000FC0104914E5C5E4FFA011491112319F482
:1014A00020E030E014C0222311F0822F3FDF812F93
:1014B00090E0880F991F885E9E4FFC01A591B49122
:1014C0008C9120E030E0802311F021E030E0C90170
:1014D0001F910F91089508951F920F920FB60F92CA
:1014E0000BB60F9211242F933F934F938F939F939B
:1014F000EF93FF938091C00082FD1DC04091C60014
:101500002091F8023091F9022F5F3F4F2F73307016
:101510008091FA029091FB022817390771F0E0914F
:10152000F802F091F902E854FD4F40833093F9023C
:101530002093F80202C08091C600FF91EF919F9125
:101540008F914F913F912F910F900BBE0F900FBE37
:101550000F901F90189508951F920F920FB60F923B
:101560000BB60F9211242F933F934F938F939F931A
:10157000EF93FF938091C80082FD1DC04091CE0083
:1015800020918003309181032F5F3F4F2F73307084
:1015900080918203909183032817390771F0E091BD
:1015A0008003F0918103E05CFC4F40833093810322
:1015B0002093800302C08091CE00FF91EF919F9114
:1015C0008F914F913F912F910F900BBE0F900FBEB7
:1015D0000F901F90189508951F920F920FB60F92BB
:1015E0000BB60F9211242F933F934F938F939F939A
:1015F000EF93FF938091D00082FD1DC04091D600F3
:1016000020910804309109042F5F3F4F2F733070F1
:1016100080910A0490910B042817390771F0E0912A
:101620000804F0910904E853FC4F40833093090407
:101630002093080402C08091D600FF91EF919F9102
:101640008F914F913F912F910F900BBE0F900FBE36
:101650000F901F90189508951F920F920FB60F923A
:101660000BB60F9211242F933F934F938F939F9319
:10167000EF93FF938091300182FD1DC040913601B0
:1016800020919004309191042F5F3F4F2F73307061
:1016900080919204909193042817390771F0E0919A
:1016A0009004F0919104E05BFB4F408330939104F0
:1016B0002093900402C080913601FF91EF919F9199
:1016C0008F914F913F912F910F900BBE0F900FBEB6
:1016D0000F901F901895E091E404F091E504E05C10
:1016E000FF4F8191919120813181821B930B8F73E8
:1016F0009070892B09F0EFDEE0910605F091070567
:10170000E05CFF4F8191919120813181821B930B8D
:101710008F739070892B09F01EDFE0912805F091FE
:101720002905E05CFF4F8191919120813181821BDD
:10173000930B8F739070892B09F04DDFE0914A0570
:10174000F0914B05E05CFF4F8191919120813181B7
:10175000821B930B8F739070892B09F07CCF0895B7
:101760001F920F920FB60F920BB60F9211242F9368
:101770003F938F939F93EF93FF9320913C0330917E
:101780003D0380913E0390913F032817390731F4C0
:101790008091C1008F7D8093C10014C0E0913E0311
:1017A000F0913F03E450FD4F208180913E039091E2
:1017B0003F0301968F73907090933F0380933E0395
:1017C0002093C600FF91EF919F918F913F912F91B0
:1017D0000F900BBE0F900FBE0F901F9018951F9289
:1017E0000F920FB60F920BB60F9211242F933F93C7
:1017F0008F939F93EF93FF932091C4033091C50380
:101800008091C6039091C7032817390731F480915E
:10181000C9008F7D8093C90014C0E091C603F09188
:10182000C703EC57FC4F20818091C6039091C703FA
:1018300001968F7390709093C7038093C603209393
:10184000CE00FF91EF919F918F913F912F910F903B
:101850000BBE0F900FBE0F901F9018951F920F9206
:101860000FB60F920BB60F9211242F933F938F93C5
:101870009F93EF93FF9320914C0430914D048091FE
:101880004E0490914F042817390731F48091D1000C
:101890008F7D8093D10014C0E0914E04F0914F04ED
:1018A000E45FFB4F208180914E0490914F0401969C
:1018B0008F73907090934F0480934E042093D600C2
:1018C000FF91EF919F918F913F912F910F900BBEC0
:1018D0000F900FBE0F901F9018951F920F920FB68A
:1018E0000F920BB60F9211242F933F938F939F93D8
:1018F000EF93FF932091D4043091D5048091D604C6
:101900009091D7042817390731F4809131018F7DE8
:101910008093310114C0E091D604F091D704EC56C5
:10192000FB4F20818091D6049091D70401968F734C
:1019300090709093D7048093D60420933601FF9142
:10194000EF919F918F913F912F910F900BBE0F9030
:101950000FBE0F901F901895AF92BF92DF92EF923B
:10196000FF920F931F93CF93DF93EC017A018B01CA
:10197000DD24403081EE580780E0680780E078077A
:1019800011F0DD24D39491E0A92EB12CEC89FD89CE
:10199000DD2069F0C50108A002C0880F991F0A94D4
:1019A000E2F7808360E079E08DE390E005C010828B
:1019B00060E874E88EE190E0A801970185D4215099
:1019C000304040405040569547953795279580E1E7
:1019D0002030380720F0DD2011F0DD24D7CFE88952
:1019E000F9893083EA89FB89208319A2EE89FF896E
:1019F000408121E030E0C9010C8C02C0880F991FA2
:101A00000A94E2F7482B4083EE89FF894081C9019F
:101A10000D8C02C0880F991F0A94E2F7482B40836F
:101A2000EE89FF894081C9010E8C02C0880F991F81
:101A30000A94E2F7482B4083EE89FF8980810F8C5E
:101A400002C0220F331F0A94E2F720952823208337
:101A5000DF91CF911F910F91FF90EF90DF90BF909A
:101A6000AF900895DC011C96ED91FC911D97E05C10
:101A7000FF4F2191319180819181281B390B2F7368
:101A80003070C9010895DC011C96ED91FC911D9701
:101A9000E05CFF4F20813181E054F040DF01AE5B1C
:101AA000BF4F8D919C9111972817390719F42FEF8B
:101AB0003FEF07C08D919C91E80FF91F8081282F7F
:101AC00030E0C9010895DC011C96ED91FC911D9751
:101AD000E05CFF4F20813181E054F040DF01AE5BDC
:101AE000BF4F8D919C9111972817390719F42FEF4B
:101AF0003FEF10C08D919C911197E80FF91F208145
:101B00008D919C91119701968F73907011969C9373
:101B10008E9330E0C9010895DC0191968C919197E4
:101B2000882339F05496ED91FC915597808186FF7A
:101B3000F9CF91961C920895CF93DF93EC01EE8537
:101B4000FF85E05CFF4F20813181E054F0402F5F42
:101B50003F4F2F733070DF01AE5BBF4F8D919C9173
:101B6000119728173907D1F3E05CFF4F80819181ED
:101B7000E054F040E80FF91F6083EE85FF85E05CDC
:101B8000FF4F31832083EE89FF89208181E090E03F
:101B90000F8C02C0880F991F0A94E2F7282B20832C
:101BA00081E089A3EC89FD8980818064808381E064
:101BB00090E0DF91CF9108951F931092DB04109273
:101BC000DA0428EE33E040E050E02093DC04309368
:101BD000DD044093DE045093DF0466E172E070930D
:101BE000D9046093D80488EB92E09093E504809345
:101BF000E4048CEF92E09093E7048093E60485EC94
:101C000090E09093E9048093E80484EC90E0909352
:101C1000EB048093EA0480EC90E09093ED048093D1
:101C2000EC0481EC90E09093EF048093EE0482EC5E
:101C300090E09093F1048093F00486EC90E0909310
:101C4000F3048093F20414E01093F404B3E0B0932F
:101C5000F504A7E0A093F604F5E0F093F704E1E0C3
:101C6000E093F8041092FD041092FC042093FE040B
:101C70003093FF0440930005509301057093FB04DB
:101C80006093FA0480E493E090930705809306053F
:101C900084E893E090930905809308058DEC90E02B
:101CA00090930B0580930A058CEC90E090930D05C2
:101CB00080930C0588EC90E090930F0580930E05BF
:101CC00089EC90E090931105809310058AEC90E0E8
:101CD00090931305809312058EEC90E09093150578
:101CE0008093140510931605B0931705A09318055B
:101CF000F0931905E0931A0510921F0510921E0526
:101D0000209320053093210540932205509323050D
:101D100070931D0560931C0588EC93E09093290552
:101D2000809328058CE094E090932B0580932A05FE
:101D300085ED90E090932D0580932C0584ED90E047
:101D400090932F0580932E0580ED90E090933105C0
:101D50008093300581ED90E09093330580933205B8
:101D600082ED90E0909335058093340586ED90E008
:101D7000909337058093360510933805B093390555
:101D8000A0933A05F0933B05E0933C051092410582
:101D9000109240052093420530934305409344053B
:101DA0005093450570933F0560933E0580E594E0B0
:101DB00090934B0580934A0584E994E090934D05F8
:101DC00080934C0585E391E090934F0580934E05F9
:101DD00084E391E0909351058093500580E391E076
:101DE000909353058093520581E391E090935505BC
:101DF0008093540582E391E09093570580935605B4
:101E000086E391E0909359058093580510935A0505
:101E1000B0935B05A0935C05F0935D05E0935E05D0
:101E20001F910895CF92DF92EF92FF920F931F932D
:101E3000CF93DF937C016B018A01C0E0D0E00FC03B
:101E4000D6016D916D01D701ED91FC910190F0816A
:101E5000E02DC7011995C80FD91F01501040011579
:101E6000110571F7CE01DF91CF911F910F91FF9076
:101E7000EF90DF90CF900895EF92FF920F931F9312
:101E80008C01DC01ED91FC910190F081E02D6DE081
:101E900019957C01D801ED91FC910190F081E02D24
:101EA000C8016AE019959C012E0D3F1DC9011F91C3
:101EB0000F91FF90EF900895CF93DF93EC016115A0
:101EC000710519F420E030E00FC0DB010D90002017
:101ED000E9F71197A61BB70BE881F9810280F3811E
:101EE000E02DAD0119959C01C901DF91CF910895B5
:101EF0004F925F927F928F929F92AF92BF92CF92BA
:101F0000DF92EF92FF920F931F93DF93CF93CDB7A2
:101F1000DEB7A1970FB6F894DEBF0FBECDBF2C0180
:101F2000742ECB01223008F42AE019A231E2C32E2C
:101F3000D12CCC0EDD1E822E9924AA24BB24672D21
:101F4000752FA5019401C0D179018A01C801B7019B
:101F5000A50194019AD1472D461B0894C108D108C8
:101F60004A3014F4405D01C0495CF6014083E1143D
:101F7000F1040105110521F07E2C5F2DC801DFCF92
:101F8000C201B60199DFA1960FB6F894DEBF0FBE6D
:101F9000CDBFCF91DF911F910F91FF90EF90DF9018
:101FA000CF90BF90AF909F908F907F905F904F9019
:101FB0000895DC012115310541F4ED91FC9101906A
:101FC000F081E02D642F1995089592CFEF92FF9242
:101FD0000F931F937C01EDDF8C01C7014DDF9C0146
:101FE000200F311FC9011F910F91FF90EF900895AD
:101FF000CF92DF92EF92FF920F931F936C01E62E28
:102000009A01FF2400E010E0B801A701D2DF8C01A3
:10201000C60132DF080F191FC8011F910F91FF90F1
:10202000EF90DF90CF900895CF92DF92EF92FF92E2
:102030000F931F93CF93DF93EC016A017B0121156E
:10204000310541F4E881F9810190F081E02D642FA0
:1020500019951DC02A303105C9F477FF16C0E881F3
:10206000F9810190F081E02D6DE219958C014427F2
:102070005527BA014C195D096E097F09CE012AE086
:1020800037DF9801280F391F03C02AE031DF9C0198
:10209000C901DF91CF911F910F91FF90EF90DF90D9
:1020A000CF900895CF92DF92EF92FF920F931F93FC
:1020B0006C017B019A010027F7FC0095102FB801F5
:1020C000A701B2DF8C01C601D7DE080F191FC801B6
:1020D0001F910F91FF90EF90DF90CF900895ECCE7D
:1020E0000895EF92FF920F931F937C01E5DE8C0120
:1020F000C701C2DE080F191FC8011F910F91FF9081
:10210000EF900895CF93DF93EC010E944C0768870E
:1021100079878A879B87E881F9810084F185E02DA2
:10212000CE0119959C0197FF15C00E944C07288588
:1021300039854A855B85621B730B840B950B2C815B
:102140003D814E815F81621773078407950718F3FD
:102150002FEF3FEFC901DF91CF910895CF93DF9328
:10216000EC01CE01CFDF9C0197FD0EC08D329105B1
:1021700059F0C0970A9740F0E881F9810680F7810D
:10218000E02DCE011995EDCFC901DF91CF910895D2
:102190009F92AF92BF92CF92DF92EF92FF920F93F6
:1021A0001F93CF93DF936C01B62ED8DFEC0197FF1E
:1021B00004C0EE24FF2487014AC09924EE24FF24A2
:1021C0008701AB2CBB24A7FCB094CA15DB0521F119
:1021D000CD32D10519F4992493941EC0CE01C09735
:1021E0000A97D0F4C801B7012AE030E040E050E09F
:1021F0004CD07B018C01CE01AA2797FDA095BA2F68
:10220000E80EF91E0A1F1B1F80ED9FEFAFEFBFEF17
:10221000E80EF91E0A1F1B1FD601ED91FC910680E6
:10222000F781E02DC6011995C6016CDFEC01C0975E
:102230000A9758F2CA15DB0541F2992041F0109532
:102240000095F094E094E11CF11C011D111DB701F3
:10225000C801DF91CF911F910F91FF90EF90DF9018
:10226000CF90BF90AF909F90089561E091CFCF93B2
:10227000DF930E94E3070E94AF06CBE6DBE00E94FB
:102280004B022097E1F327DAFACF629FD001739FC8
:10229000F001829FE00DF11D649FE00DF11D929F02
:1022A000F00D839FF00D749FF00D659FF00D992741
:1022B000729FB00DE11DF91F639FB00DE11DF91F65
:1022C000BD01CF0111240895A1E21A2EAA1BBB1B48
:1022D000FD010DC0AA1FBB1FEE1FFF1FA217B307F2
:1022E000E407F50720F0A21BB30BE40BF50B661F08
:1022F000771F881F991F1A9469F7609570958095CC
:1023000090959B01AC01BD01CF01089597FB092E6B
:1023100005260ED057FD04D0D7DF0AD0001C38F4B4
:1023200050954095309521953F4F4F4F5F4F089501
:10233000F6F790958095709561957F4F8F4F9F4FE1
:102340000895EE0FFF1F0590F491E02D199485FD7F
:1023500007C08062911104C081568A51E0F7089548
:0A236000992788270895F894FFCF0D
:10236A006F6B007374617274007B002C007D003106
:10237A000001000000009C0D120F320D630D430D89
:02238A008C0DB8
:00000001FF
