:100000000EC1000039C1000037C1000035C1000039
:1000100033C1000031C100002FC100002DC100001C
:100020002BC1000029C1000027C1000025C100002C
:1000300023C1000021C100001FC100001DC100003C
:100040001BC1000019C1000017C1000015C100004C
:1000500013C1000011C100000FC100000C945D0924
:100060000BC100000C94CE0C0C94120E05C10000C4
:1000700003C1000001C10000FFC00000FDC000007E
:10008000FBC00000F9C00000F7C00000F5C0000090
:100090000C940E0D0C94510EEFC00000EDC000004A
:1000A000EBC00000E9C00000E7C00000E5C00000B0
:1000B000E3C00000E1C00000DFC00000DDC00000C0
:1000C000DBC00000D9C00000D7C000000C944E0D6A
:1000D0000C94900ED1C000000C948E0D0C94CF0E99
:1000E000CBC0000000002100240027002A002D00C2
:1000F0003000330001010000040107010A01000083
:100100002200250028002B002E00310034000201BF
:100110000000050108010B0100002000230026005B
:1001200029002C002F00320000010000030106010D
:10013000090105050505070508080808020202026D
:100140000A0A080804040404010101010101010173
:100150000303030303030303040707070C0C0C0C3E
:100160000C0C0C0C02020202060606060606060627
:100170000B0B0B0B0B0B0B0B07070A0A0A0A0A0ADD
:100180000505050401021020200808102040102059
:10019000408002010201080402010102040810204B
:1001A0004080804020100804020180040201804049
:1001B00020100804020108040201010204081020B2
:1001C00040800102040810204080100804088010BC
:1001D0002040044080100000090A02080B0C0D07A3
:1001E0000603040100000000000000000000000001
:1001F00000000000000000000000000000000000FF
:10020000000011100F0000000000000000000000BE
:100210000000000000000000000000003E1011245B
:100220001FBECFEFD1E2DEBFCDBF00E00CBF12E0BA
:10023000A0E0B2E0E8ECF3E200E00BBF02C0079000
:100240000D92AC33B107D9F71BBE15E0ACE3B2E0B9
:1002500001C01D92A53EB107E1F712E0CEE1D2E068
:1002600004C02297FE010E94D211CC31D107C9F7F8
:100270000E949E0A0C94E211C3CE882311F08FEFE6
:1002800001C088E380930B010895882311F012B810
:10029000089588EF82B90895823041F1833020F4C7
:1002A000813009F07DC007C0843009F43DC0803141
:1002B00009F076C057C088E260E08CD689E260E041
:1002C00089D685E460E086D687E260E083D684E460
:1002D00060E080D683E460E07DD681E460E07AD699
:1002E00082E460E077D68FE360E01AC088E261E0E4
:1002F00071D689E260E06ED685E461E06BD687E274
:1003000060E068D684E461E065D683E460E062D6AC
:1003100081E461E05FD682E460E05CD68FE361E077
:1003200059D680E460E01DC088E260E053D689E2DF
:1003300061E050D685E460E04DD687E261E04AD6C0
:1003400084E460E047D683E461E044D681E460E081
:1003500041D682E461E03ED68FE360E03BD680E4A4
:1003600061E038C688E261E035D689E261E032D6E4
:1003700085E461E02FD687E261E02CD684E461E079
:1003800029D683E461E026D681E461E023D682E4C5
:1003900061E020D68FE361E01DD680E461E01AC6FB
:1003A00008958FEF88B981E090E00E94320A80EED4
:1003B00088B908950F931F93DF93CF9300D00F92C6
:1003C0000F92CDB7DEB7062FDE011196E7E2F2E01D
:1003D00095E001900D929150E1F7FE01E80FF11DBB
:1003E000118186E260E0F6D51EBD0DB407FEFDCF9B
:1003F0008EB50EBD0DB407FEFDCF8EB586E261E071
:10040000E9D50F900F900F900F900F90CF91DF9143
:100410001F910F910895CF93DF9317D586E261E086
:1004200026D5C0E0D0E0FE01EE5DFD4F8C2F60814F
:10043000C1DF2196C530D105B1F7DF91CF91089585
:10044000863441F1873474F48334F1F084342CF42D
:100450008134B1F0823471F515C08434B9F085343B
:1004600049F516C08A34E9F08B342CF48734A1F0B6
:10047000883401F513C08B34B9F08C34D9F417C02B
:1004800080B1089583B1089586B1089589B1089522
:100490008CB108958FB1089582B3089580910001C1
:1004A0000895809103010895809106010895809137
:1004B0000901089508958DE595E060E072E00C94DF
:1004C000090CEF92FF920F931F93CF93DF938BE072
:1004D000B3D5892B51F580916A028F5F80936A02B0
:1004E000833018F132D720914A0230914B0240916B
:1004F0004C0250914D02621B730B840B950B685E8E
:1005000073408040904088F08DE595E063E072E0B4
:100510000E94090C10926A0218D760934A027093E5
:100520004B0280934C0290934D028DE595E00E9422
:10053000940F892B09F4F9C38DE595E00E94C50F4E
:1005400080933C026AE070E080E090E032D78091D6
:100550003C028D3409F474C18E3454F4833409F4AC
:1005600036C3883409F461C0813409F0D9C340C16D
:10057000823569F0833524F4803509F0D1C302C394
:10058000853509F44CC1873509F0CAC328C08DE50B
:1005900095E00E94A50F0E94D811892B79F08DE576
:1005A00095E00E94C50F809333034ADF682F8DE5E5
:1005B00095E04AE050E00E94900BB0C38DE595E0D5
:1005C0000E94A50FC0970A9708F0A8C38DE595E093
:1005D0000E94CB0C862F60933D022ED519C18DE56C
:1005E00095E00E94A50FC0970A9708F097C38DE584
:1005F00095E00E94CB0C862F60933D0261E037D4DA
:100600008DE595E00E94C50F8834910529F08C3462
:10061000910509F083C304C080913D0261E003C0ED
:1006200080913D0260E0D6D479C38DE595E00E94CB
:10063000A50FC0970A9708F0D8C08DE595E00E94F5
:10064000CB0C9B01AC016093420230934302809338
:1006500044025093450260E472E48FE090E00E940F
:1006600093112093520230935302409354025093BB
:10067000550281E00ADE1092560210925702109243
:100680005802109259026FD660934E0270934F0237
:1006900080935002909351028AE0CED4892B09F4C2
:1006A00051C080E0EADD37C0809156029091570238
:1006B000A0915802B09159020196A11DB11D8093DD
:1006C000560290935702A0935802B09359024BD60A
:1006D00020914E0230914F024091500250915102B0
:1006E000621B730B840B950B2091520230915302C5
:1006F0004091540250915502621773078407950781
:1007000050F04FDE30D660934E0270934F028093CC
:100710005002909351028AE08FD4892B69F4809122
:10072000560290915702A0915802B0915902895EE9
:100730009340A040B04030F48AE07ED4892B09F485
:10074000B3CFC5CF109256021092570210925802A2
:100750001092590281E091DD37C005D620914E02FA
:1007600030914F024091500250915102621B730B25
:10077000840B950B20915202309153024091540208
:10078000509155026217730784079507E8F009DE58
:10079000EAD560934E0270934F028093500290937B
:1007A00051028091560290915702A0915802B09147
:1007B00059020196A11DB11D8093560290935702D4
:1007C000A0935802B09359028AE036D4892B29F2BB
:1007D000409156025091570260915802709159020F
:1007E0008DE595E02AE030E089D780E04EDD96C2C5
:1007F0008DE595E00E94A50FC0970A9708F08EC27C
:100800008DE595E00E94CB0C862F60933D0243D48A
:10081000BC018DE595E04AE050E0DCD77FC28DE574
:1008200095E00E94A50FC0970A9708F077C28DE562
:1008300095E00E94CB0C862F60933D022DDD6EC2A9
:100840008DE595E00E94A50FC0970A9708F066C253
:100850008DE595E00E94CB0C609347028DE595E015
:100860000E94A50F8634910509F058C28DE595E0E8
:100870000E94CB0C9B01AC0170934902609348022B
:1008800040E050E060E472E48FE090E00E94B51137
:1008900020935202309353024093540250935502D6
:1008A00054D560935A0270935B0280935C029093DC
:1008B0005D0259D560934E0270934F0280935002AF
:1008C0009093510210925E020CC0E82FF0E0DF011D
:1008D000A05ABD4F1C92EB59FD4F10828F5F809341
:1008E0005E0280915E02853080F310925E029091EC
:1008F0005F0223C0822F90E0FC0153E0EE0FFF1F48
:100900005A95E1F7880F991FE80FF91FE30FF11DC2
:10091000EE0FFF1FEE0FFF1FE559FD4F10821182F2
:1009200012821382342F432F4F5F20915E024B308F
:1009300009F72F5F20935E029AE080915E02853076
:1009400010F430E0F0CF90935F020CEF88EEE82EC9
:1009500083E0F82EC4E0D0E07DC005D520914E02A2
:1009600030914F024091500250915102621B730B23
:10097000840B950B20915202309153024091540206
:1009800050915502621773078407950708F462C0F7
:10099000EAD460934E0270934F028093500290937A
:1009A0005102109103011C7F10925E02602F70E0D3
:1009B000812F90E06827792747C0F0E0CE010E2E06
:1009C00002C0880F991F0A94E2F786239723892B88
:1009D00061F0DF01AB59BD4F8C91833030F0E05AAC
:1009E000FD4F80818F5F80831C9240915E02242F97
:1009F00030E0F901E05AFD4F5081F901EE0FFF1F81
:100A0000C901B3E0880F991FBA95E1F7E80FF91F04
:100A1000E50FF11DEE0FFF1FEE0FFF1FE559FD4F14
:100A200080819181A281B3810196A11DB11D808336
:100A30009183A283B3832B593D4FF90180818F5F4E
:100A400080834F5F40935E02E0915E02E53008F4E0
:100A5000B4CF012F7AD420915A0230915B02409199
:100A60005C0250915D02621B730B840B950B20910D
:100A7000470230E0A9014E9D90014F9D300D5E9DD3
:100A8000300D1124442737FD4095542F2617370782
:100A90004807590708F061CF10925E02C8E2D0E023
:100AA0006BC010925F025EC03323B9F48DE595E010
:100AB00069E072E0ACD620915F0280915E0290E026
:100AC000FC0163E0EE0FFF1F6A95E1F7880F991FA5
:100AD000E80FF91FE20FF11D2CC020915E023930A2
:100AE000D1F4822F90E08C9FF0018D9FF00D9C9FA0
:100AF000F00D1124E559FD4F44A155A166A177A140
:100B00008DE595E02AE030E0ECD58DE595E06DE0EF
:100B100072E07FD622C0822F90E0FC0143E0EE0F0E
:100B2000FF1F4A95E1F7880F991FE80FF91FE30FA0
:100B3000F11DEE0FFF1FEE0FFF1FE559FD4F408126
:100B40005181628173818DE595E02AE030E0C9D55D
:100B50008DE595E06BE072E05AD680915F028F5F81
:100B600080935F0230915F023A3008F49DCF80910C
:100B70005E028F5F80935E0280915E02853008F492
:100B800090CFCCC08DE595E00E94A50FC0970A9745
:100B900008F0C4C08DE595E0FED660933D028DE57A
:100BA00095E00E94A50F8434910509F0B7C08DE54A
:100BB00095E0F1D66093460280913D0261E057D105
:100BC0006091460280913D0270E099D2A7C08DE508
:100BD00095E00E94A50FC0970A9708F09FC08DE589
:100BE00095E0D9D660933E0270933F028093400215
:100BF000909341028DE595E00E94A50F8634910502
:100C000009F08CC08DE595E0C6D69B01AC016093E0
:100C1000420230934302809344025093450260E4C1
:100C200072E48FE090E00E9493112093520230937F
:100C30005302409354025093550280E01EDB8DE531
:100C400095E00E94C50F8434910529F08535910502
:100C500021F480E001C081E010DB81E016DB10921E
:100C600056021092570210925802109259027BD3EA
:100C700060934E0270934F02809350029093510202
:100C800037C071D320914E0230914F0240915002F3
:100C900050915102621B730B840B950B20915202F1
:100CA00030915302409154025091550262177307DC
:100CB00084079507E8F075DB56D360934E02709376
:100CC0004F0280935002909351028091560290916E
:100CD0005702A0915802B09159020196A11DB11D71
:100CE0008093560290935702A0935802B0935902F2
:100CF000209156023091570240915802509159026A
:100D000080913E0290913F02A0914002B091410239
:100D100082179307A407B50708F0B3CFCCDB05C053
:100D20008DE595E06FE072E074D5DF91CF911F9172
:100D30000F91FF90EF9008950F931F930DE515E02D
:100D4000C80140E052EC61E070E00E940E0F80E0CC
:100D50009CDA80E1A1DA5FDB8AE060E088D08AE09B
:100D600061E038D18BE060E082D08BE061E032D18D
:100D700083E061E07CD088EF81B987EC80930A0141
:100D80008FE187B91092040188E261E070D085E4B8
:100D900061E06DD084E461E06AD081E461E067D015
:100DA0008FE361E064D089E261E061D087E261E0D5
:100DB0005ED083E461E05BD082E461E058D080E4FF
:100DC00061E055D08EE360E052D08CE360E04FD01C
:100DD0008BE360E04CD08AE360E049D089E360E0D7
:100DE00046D083E160E043D082E160E040D081E121
:100DF00060E03DD080E160E03AD08FE060E037D045
:100E00008EE060E034D083E161E0E4D082E161E033
:100E1000E1D081E161E0DED080E161E0DBD08FE014
:100E200061E0D8D08EE061E0D5D08FD260934A02E5
:100E300070934B0280934C0290934D02C8016FE176
:100E400072E0E5D41F910F91089585E361E0C2D06F
:100E500085E361E00CD08CB580618CBD8CB580647D
:100E60008CBD84E361E003D083E361E000C0CF93F5
:100E7000DF93482F50E0CA018C579E4FFC013491FC
:100E80004E5C5E4FFA018491882369F190E0880FEF
:100E9000991FFC01EC51FF4FA591B491FC01E25068
:100EA000FF4FC591D491662351F42FB7F8948C91DC
:100EB000932F909589238C93888189230BC062306E
:100EC00061F42FB7F8948C91932F909589238C938C
:100ED0008881832B88832FBF06C09FB7F8948C919D
:100EE000832B8C939FBFDF91CF910895893009F4B4
:100EF00049C08A30A0F4843051F1853040F482300A
:100F000079F1833000F5813009F063C026C0873065
:100F100079F1883098F5863009F05BC025C08D30B6
:100F200009F442C08E3028F48B30B1F18C30C0F51A
:100F30002DC0803109F442C0813109F445C08F30A1
:100F400009F047C037C0809180008F7703C080913F
:100F500080008F7D80938000089584B58F7702C0D4
:100F600084B58F7D84BD08958091B0008F7703C0D4
:100F70008091B0008F7D8093B000089580919000A3
:100F80008F7707C0809190008F7D03C08091900083
:100F9000877F8093900008958091A0008F7707C08D
:100FA0008091A0008F7D03C08091A000877F8093F7
:100FB000A0000895809120018F7703C080912001C7
:100FC0008F7D80932001089580912001877F8093F9
:100FD00020010895FF920F931F93F62E482F50E0A3
:100FE000CA018A529E4FFC012491CA018C579E4F20
:100FF000FC0114914E5C5E4FFA0104910023C1F094
:10100000222311F0822F72DFE02FF0E0EE0FFF1F9E
:10101000E250FF4FA591B4919FB7F894FF2021F4BF
:101020008C911095812302C08C91812B8C939FBF52
:101030001F910F91FF9008950F931F93482F50E039
:10104000CA018A529E4FFC012491CA018C579E4FBF
:10105000FC0104914E5C5E4FFA011491112319F4C6
:1010600020E030E014C0222311F0822F3FDF812FD7
:1010700090E0880F991F885E9E4FFC01A591B49166
:101080008C9120E030E0802311F021E030E0C901B4
:101090001F910F910895382F863308F03653209111
:1010A0007B00832F86958695869590E08170907061
:1010B00043E0880F991F4A95E1F7277F282B20935B
:1010C0007B003770809121028295880F880F807C89
:1010D000832B80937C0080917A00806480937A00D7
:1010E00080917A0086FDFCCF2091780040917900B4
:1010F000942F80E030E0282B392BC90108951F93ED
:10110000CF93DF93182FEB0161E0B1DE209709F454
:10111000CAC0CF3FD10509F4C9C0E12FF0E0EA52BF
:10112000FE4F8491893009F466C08A30B0F484306F
:10113000F1F1853040F4823059F1833070F581301F
:1011400009F0AEC020C0873009F443C0883008F0F1
:1011500048C0863009F0A4C034C08D3009F478C08E
:101160008E3038F48B3009F45AC08C3008F066C0E9
:101170004CC0803109F480C0813109F487C08F30C0
:1011800009F08EC06FC084B5806884BDC7BD91C0B2
:1011900084B5806284BDC8BD8CC0809180008068A9
:1011A00080938000D0938900C093880082C0809192
:1011B0008000806280938000D0938B00C0938A006F
:1011C00078C08091B00080688093B000C093B30075
:1011D00070C08091B00080628093B000C093B40072
:1011E00068C080919000806880939000D0939900AF
:1011F000C09398005EC080919000806280939000C0
:10120000D0939B00C0939A0054C080919000886056
:1012100080939000D0939D00C0939C004AC0809121
:10122000A00080688093A0008091A0008F7B8093B5
:10123000A000D093A900C093A8003BC08091A0005B
:1012400080628093A000D093AB00C093AA0031C00D
:101250008091A00088608093A000D093AD00C093DF
:10126000AC0027C080912001806880932001D0933A
:101270002901C09328011DC08091200180628093C4
:101280002001D0932B01C0932A0113C0809120012B
:10129000886080932001D0932D01C0932C0109C058
:1012A000C038D1051CF4812F60E002C0812F61E0BD
:1012B00091DEDF91CF911F9108951F920F920FB68B
:1012C0000F9211242F933F938F939F93AF93BF93CC
:1012D0008091380390913903A0913A03B0913B0378
:1012E00030913C030196A11DB11D232F2D5F2D3799
:1012F00020F02D570196A11DB11D20933C03809332
:10130000380390933903A0933A03B0933B03809141
:10131000340390913503A0913603B09137030196C1
:10132000A11DB11D8093340390933503A093360320
:10133000B0933703BF91AF919F918F913F912F91C0
:101340000F900FBE0F901F9018958FB7F8942091B3
:1013500038033091390340913A0350913B038FBFDA
:10136000B901CA0108959FB7F894209134033091D0
:101370003503409136035091370386B5A89B06C0CC
:101380008F3F21F02F5F3F4F4F4F5F4F9FBF542F35
:10139000432F322F2227280F311D411D511D82E07E
:1013A000220F331F441F551F8A95D1F7B901CA0177
:1013B00008959B01AC017FB7F8948091340390911C
:1013C0003503A0913603B091370366B5A89B05C0DD
:1013D0006F3F19F00196A11DB11D7FBFBA2FA92F34
:1013E000982F8827860F911DA11DB11D62E0880FDF
:1013F000991FAA1FBB1F6A95D1F7BC012DC0FFB76B
:10140000F8948091340390913503A0913603B09104
:101410003703E6B5A89B05C0EF3F19F00196A11D63
:10142000B11DFFBFBA2FA92F982F88278E0F911DAE
:10143000A11DB11DE2E0880F991FAA1FBB1FEA95ED
:10144000D1F7861B970B885E9340C8F2215030403D
:101450004040504068517C4F2115310541055105F0
:1014600071F60895019739F0880F991F880F991F19
:1014700002970197F1F70895789484B5826084BD4E
:1014800084B5816084BD85B5826085BD85B5816088
:1014900085BDEEE6F0E0808181608083E1E8F0E0E8
:1014A0001082808182608083808181608083E0E817
:1014B000F0E0808181608083E1EBF0E080818460F6
:1014C0008083E0EBF0E0808181608083E1E9F0E0FF
:1014D000808182608083808181608083E0E9F0E0A8
:1014E000808181608083E1EAF0E080818260808396
:1014F000808181608083E0EAF0E080818160808388
:10150000E1E2F1E08081826080838081816080837C
:10151000E0E2F1E0808181608083EAE7F0E08081B1
:101520008460808380818260808380818160808309
:101530008081806880831092C1000895CF93DF93EB
:101540009BDFFADBCDECDDE00E9461022097E1F346
:1015500024D3FACFCF92DF92EF92FF920F931F9393
:10156000CF93DF937C016B018A01C0E0D0E00FC014
:10157000D6016D916D01D701ED91FC910190F08143
:10158000E02DC7011995C80FD91F01501040011552
:10159000110571F7CE01DF91CF911F910F91FF904F
:1015A000EF90DF90CF900895EF92FF920F931F93EB
:1015B0008C01DC01ED91FC910190F081E02D6DE05A
:1015C00019957C01D801ED91FC910190F081E02DFD
:1015D000C8016AE019959C012E0D3F1DC9011F919C
:1015E0000F91FF90EF900895CF93DF93EC01611579
:1015F000710519F420E030E00FC0DB010D900020F0
:10160000E9F71197A61BB70BE881F9810280F381F6
:10161000E02DAD0119959C01C901DF91CF9108958D
:101620004F925F927F928F929F92AF92BF92CF9292
:10163000DF92EF92FF920F931F93DF93CF93CDB77B
:10164000DEB7A1970FB6F894DEBF0FBECDBF2C0159
:10165000742ECB01223008F42AE019A231E2C32E05
:10166000D12CCC0EDD1E822E9924AA24BB24672DFA
:10167000752FA501940157D679018A01C801B701D8
:10168000A501940131D6472D461B0894C108D10805
:101690004A3014F4405D01C0495CF6014083E11416
:1016A000F1040105110521F07E2C5F2DC801DFCF6B
:1016B000C201B60199DFA1960FB6F894DEBF0FBE46
:1016C000CDBFCF91DF911F910F91FF90EF90DF90F1
:1016D000CF90BF90AF909F908F907F905F904F90F2
:1016E0000895DC012115310541F4ED91FC91019043
:1016F000F081E02D642F1995089592CFEF92FF921B
:101700000F931F937C01EDDF8C01C7014DDF9C011E
:10171000200F311FC9011F910F91FF90EF90089585
:10172000CF92DF92EF92FF920F931F936C01E62E00
:101730009A01FF2400E010E0B801A701D2DF8C017C
:10174000C60132DF080F191FC8011F910F91FF90CA
:10175000EF90DF90CF900895CF92DF92EF92FF92BB
:101760000F931F93CF93DF93EC016A017B01211547
:10177000310541F4E881F9810190F081E02D642F79
:1017800019951DC02A303105C9F477FF16C0E881CC
:10179000F9810190F081E02D6DE219958C014427CB
:1017A0005527BA014C195D096E097F09CE012AE05F
:1017B00037DF9801280F391F03C02AE031DF9C0171
:1017C000C901DF91CF911F910F91FF90EF90DF90B2
:1017D000CF900895CF92DF92EF92FF920F931F93D5
:1017E0006C017B019A010027F7FC0095102FB801CE
:1017F000A701B2DF8C01C601D7DE080F191FC8018F
:101800001F910F91FF90EF90DF90CF900895ECCE55
:101810000895EF92FF920F931F937C01E5DE8C01F8
:10182000C701C2DE080F191FC8011F910F91FF9059
:10183000EF900895CF93DF93EC0187DD6887798778
:101840008A879B87E881F9810084F185E02DCE01AC
:1018500019959C0197FF14C078DD288539854A8544
:101860005B85621B730B840B950B2C813D814E8134
:101870005F81621773078407950720F32FEF3FEF0F
:10188000C901DF91CF910895CF93DF93EC01CE0191
:10189000D1DF9C0197FD0EC08D32910559F0C097A4
:1018A0000A9740F0E881F9810680F781E02DCE01AA
:1018B0001995EDCFC901DF91CF9108959F92AF9215
:1018C000BF92CF92DF92EF92FF920F931F93CF932D
:1018D000DF936C01B62ED8DFEC0197FF04C0EE2435
:1018E000FF2487014AC09924EE24FF248701AB2CF2
:1018F000BB24A7FCB094CA15DB0521F1CD32D1057C
:1019000019F4992493941EC0CE01C0970A97D0F47D
:10191000C801B7012AE030E040E050E0E5D47B01A7
:101920008C01CE01AA2797FDA095BA2FE80EF91ECB
:101930000A1F1B1F80ED9FEFAFEFBFEFE80EF91EF0
:101940000A1F1B1FD601ED91FC910680F781E02D47
:10195000C6011995C6016EDFEC01C0970A9758F2CF
:10196000CA15DB0541F2992041F010950095F094DD
:10197000E094E11CF11C011D111DB701C801DF91AC
:10198000CF911F910F91FF90EF90DF90CF90BF907C
:10199000AF909F90089561E091CF08951F920F92AC
:1019A0000FB60F920BB60F9211242F933F934F93C4
:1019B0008F939F93EF93FF938091C00082FD1DC092
:1019C0004091C60020917D0330917E032F5F3F4FF1
:1019D0002F73307080917F0390918003281739070F
:1019E00071F0E0917D03F0917E03E35CFC4F408356
:1019F00030937E0320937D0302C08091C600FF9147
:101A0000EF919F918F914F913F912F910F900BBE2E
:101A10000F900FBE0F901F90189508951F920F9270
:101A20000FB60F920BB60F9211242F933F934F9343
:101A30008F939F93EF93FF938091C80082FD1DC009
:101A40004091CE0020910504309106042F5F3F4F56
:101A50002F7330708091070490910804281739077C
:101A600071F0E0910504F0910604EB53FC4F4083C4
:101A7000309306042093050402C08091CE00FF91AC
:101A8000EF919F918F914F913F912F910F900BBEAE
:101A90000F900FBE0F901F90189508951F920F92F0
:101AA0000FB60F920BB60F9211242F933F934F93C3
:101AB0008F939F93EF93FF938091D00082FD1DC081
:101AC0004091D60020918D0430918E042F5F3F4FBE
:101AD0002F73307080918F049091900428173907EC
:101AE00071F0E0918D04F0918E04E35BFB4F408335
:101AF00030938E0420938D0402C08091D600FF9114
:101B0000EF919F918F914F913F912F910F900BBE2D
:101B10000F900FBE0F901F90189508951F920F926F
:101B20000FB60F920BB60F9211242F933F934F9342
:101B30008F939F93EF93FF938091300182FD1DC09F
:101B40004091360120911505309116052F5F3F4FCA
:101B50002F73307080911705909118052817390759
:101B600071F0E0911505F0911605EB52FB4F4083A3
:101B7000309316052093150502C080913601FF9120
:101B8000EF919F918F914F913F912F910F900BBEAD
:101B90000F900FBE0F901F901895E0916905F0917E
:101BA0006A05E05CFF4F8191919120813181821B18
:101BB000930B8F739070892B09F0EFDEE0918B050A
:101BC000F0918C05E05CFF4F8191919120813181F2
:101BD000821B930B8F739070892B09F01EDFE091AD
:101BE000AD05F091AE05E05CFF4F819191912081B0
:101BF0003181821B930B8F739070892B09F04DDF1D
:101C0000E091CF05F091D005E05CFF4F819191917B
:101C100020813181821B930B8F739070892B09F087
:101C20007CCF08951F920F920FB60F920BB60F92B2
:101C300011242F933F938F939F93EF93FF932091C2
:101C4000C1033091C2038091C3039091C40328174C
:101C5000390731F48091C1008F7D8093C10014C099
:101C6000E091C303F091C403EF57FC4F20818091B2
:101C7000C3039091C40301968F7390709093C40333
:101C80008093C3032093C600FF91EF919F918F91A2
:101C90003F912F910F900BBE0F900FBE0F901F9092
:101CA00018951F920F920FB60F920BB60F92112438
:101CB0002F933F938F939F93EF93FF93209149042A
:101CC00030914A0480914B0490914C0428173907B5
:101CD00031F48091C9008F7D8093C90014C0E091D8
:101CE0004B04F0914C04E75FFB4F208180914B0443
:101CF00090914C0401968F73907090934C04809354
:101D00004B042093CE00FF91EF919F918F913F91D3
:101D10002F910F900BBE0F900FBE0F901F90189534
:101D20001F920F920FB60F920BB60F9211242F93A2
:101D30003F938F939F93EF93FF932091D104309122
:101D4000D2048091D3049091D4042817390731F438
:101D50008091D1008F7D8093D10014C0E091D30495
:101D6000F091D404EF56FB4F20818091D3049091E1
:101D7000D40401968F7390709093D4048093D3040D
:101D80002093D600FF91EF919F918F913F912F91DA
:101D90000F900BBE0F900FBE0F901F9018951F92C3
:101DA0000F920FB60F920BB60F9211242F933F9301
:101DB0008F939F93EF93FF932091590530915A058C
:101DC00080915B0590915C052817390731F480916B
:101DD00031018F7D8093310114C0E0915B05F0915A
:101DE0005C05E75EFA4F208180915B0590915C0570
:101DF00001968F73907090935C0580935B052093A0
:101E00003601FF91EF919F918F913F912F910F900C
:101E10000BBE0F900FBE0F901F901895AF92BF9200
:101E2000DF92EF92FF920F931F93CF93DF93EC011A
:101E30007A018B01DD24403081EE580780E068078D
:101E400080E0780711F0DD24D39491E0A92EB12C25
:101E5000EC89FD89DD2069F0C50108A002C0880F6A
:101E6000991F0A94E2F7808360E079E08DE390E0C7
:101E700005C0108260E874E88EE190E0A801970147
:101E800052D22150304040405040569547953795AA
:101E9000279580E12030380720F0DD2011F0DD2487
:101EA000D7CFE889F9893083EA89FB89208319A291
:101EB000EE89FF89408121E030E0C9010C8C02C02D
:101EC000880F991F0A94E2F7482B4083EE89FF8917
:101ED0004081C9010D8C02C0880F991F0A94E2F756
:101EE000482B4083EE89FF894081C9010E8C02C0D6
:101EF000880F991F0A94E2F7482B4083EE89FF89E7
:101F000080810F8C02C0220F331F0A94E2F72095C4
:101F100028232083DF91CF911F910F91FF90EF90A5
:101F2000DF90BF90AF900895DC011C96ED91FC917D
:101F30001D97E05CFF4F2191319180819181281B99
:101F4000390B2F733070C9010895DC011C96ED9197
:101F5000FC911D97E05CFF4F20813181E054F040FF
:101F6000DF01AE5BBF4F8D919C9111972817390708
:101F700019F42FEF3FEF07C08D919C91E80FF91FE7
:101F80008081282F30E0C9010895DC011C96ED9175
:101F9000FC911D97E05CFF4F20813181E054F040BF
:101FA000DF01AE5BBF4F8D919C91119728173907C8
:101FB00019F42FEF3FEF10C08D919C911197E80F0E
:101FC000F91F20818D919C91119701968F739070CC
:101FD00011969C938E9330E0C9010895DC0191968F
:101FE0008C919197882339F05496ED91FC915597F7
:101FF000808186FFF9CF91961C920895CF93DF934D
:10200000EC01EE85FF85E05CFF4F20813181E054DB
:10201000F0402F5F3F4F2F733070DF01AE5BBF4F3B
:102020008D919C91119728173907D1F3E05CFF4FF0
:1020300080819181E054F040E80FF91F6083EE85C4
:10204000FF85E05CFF4F31832083EE89FF8920818B
:1020500081E090E00F8C02C0880F991F0A94E2F78C
:10206000282B208381E089A3EC89FD89808180640D
:10207000808381E090E0DF91CF9108951F931092CB
:10208000600510925F0528EE33E040E050E02093B9
:10209000610530936205409363055093640560E3E6
:1020A00072E070935E0560935D058DE393E090931D
:1020B0006A058093690581E893E090936C058093AD
:1020C0006B0585EC90E090936E0580936D0584EC34
:1020D00090E09093700580936F0580EC90E0909372
:1020E00072058093710581EC90E090937405809364
:1020F000730582EC90E0909376058093750586ECED
:1021000090E0909378058093770514E0109379051B
:10211000B3E0B0937A05A7E0A0937B05F5E0F093D8
:102120007C05E1E0E0937D05109282051092810527
:10213000209383053093840540938505509386054D
:102140007093800560937F0585EC93E090938C05F8
:1021500080938B0589E094E090938E0580938D05A4
:102160008DEC90E09093900580938F058CEC90E03F
:10217000909392058093910588EC90E0909394055C
:102180008093930589EC90E0909396058093950554
:102190008AEC90E090939805809397058EEC90E000
:1021A00090939A058093990510939B05B0939C0595
:1021B000A0939D05F0939E05E0939F051092A405C2
:1021C0001092A3052093A5053093A6054093A7057B
:1021D0005093A8057093A2056093A1058DE494E047
:1021E0009093AE058093AD0581E994E09093B0059E
:1021F0008093AF0585ED90E09093B2058093B10593
:1022000084ED90E09093B4058093B30580ED90E069
:102210009093B6058093B50581ED90E09093B80555
:102220008093B70582ED90E09093BA058093B9054D
:1022300086ED90E09093BC058093BB051093BD059F
:10224000B093BE05A093BF05F093C005E093C10510
:102250001092C6051092C5052093C7053093C80596
:102260004093C9055093CA057093C4056093C30594
:1022700085ED94E09093D0058093CF0589E195E0BA
:102280009093D2058093D10585E391E09093D40596
:102290008093D30584E391E09093D6058093D50590
:1022A00080E391E09093D8058093D70581E391E096
:1022B0009093DA058093D90582E391E09093DC0551
:1022C0008093DB0586E391E09093DE058093DD0546
:1022D0001093DF05B093E005A093E105F093E205CC
:1022E000E093E3051F910895629FD001739FF00171
:1022F000829FE00DF11D649FE00DF11D929FF00D96
:10230000839FF00D749FF00D659FF00D9927729FCC
:10231000B00DE11DF91F639FB00DE11DF91FBD0157
:10232000CF0111240895A1E21A2EAA1BBB1BFD01A7
:102330000DC0AA1FBB1FEE1FFF1FA217B307E407A4
:10234000F50720F0A21BB30BE40BF50B661F771FFC
:10235000881F991F1A9469F76095709580959095DC
:102360009B01AC01BD01CF01089597FB092E052605
:102370000ED057FD04D0D7DF0AD0001C38F450959A
:102380004095309521953F4F4F4F5F4F0895F6F799
:1023900090958095709561957F4F8F4F9F4F0895D1
:1023A000EE0FFF1F0590F491E02D199485FD07C0F5
:1023B0008062911104C081568A51E0F708959927EF
:0823C00088270895F894FFCF6F
:1023C8006F6B007374617274007B002C007D005584
:1023D8006E6B6E6F776E20636F6D6D616E6400312A
:1023E8000001878787878704050300010000000034
:0C23F800FE0FAA0A940FC50FA50FEE0FF0
:00000001FF
