:100000001AC1000045C1000043C1000041C1000009
:100010003FC100003DC100003BC1000039C10000EC
:1000200037C1000035C1000033C1000031C10000FC
:100030002FC100002DC100002BC1000029C100000C
:1000400027C1000025C1000023C1000021C100001C
:100050001FC100001DC100001BC100000C9443091A
:1000600017C100000C94B40C0C94F80D11C10000E1
:100070000FC100000DC100000BC1000009C100004C
:1000800007C1000005C1000003C1000001C100005C
:100090000C94F40C0C94370EFBC00000F9C0000067
:1000A000F7C00000F5C00000F3C00000F1C0000080
:1000B000EFC00000EDC00000EBC00000E9C0000090
:1000C000E7C00000E5C00000E3C000000C94340D60
:1000D0000C94760EDDC000000C94740D0C94B50EDB
:1000E000D7C0000000002100240027002A002D00B6
:1000F0003000330001010000040107010A01000083
:100100002200250028002B002E00310034000201BF
:100110000000050108010B0100002000230026005B
:1001200029002C002F00320000010000030106010D
:10013000090105050505070508080808020202026D
:100140000A0A080804040404010101010101010173
:100150000303030303030303040707070C0C0C0C3E
:100160000C0C0C0C02020202060606060606060627
:100170000B0B0B0B0B0B0B0B07070A0A0A0A0A0ADD
:1001800005050504040408080102102020080810D1
:1001900020401020408002010201080402010102F7
:1001A00004081020408080402010080402018004D0
:1001B000020180402010080402010804020101022B
:1001C000040810204080010204081020408010081C
:1001D000040880102040044080102040048000006B
:1001E000090A02080B0C0D070603040100000000B9
:1001F00000000000000000000000000000000000FF
:100200000000000000000000000011100F000000BE
:1002100000000000000000000000000000000000DE
:1002200000000000000000000000000000000000CE
:1002300000000000241011241FBECFEFD1E2DEBF6A
:10024000CDBF00E00CBF12E0A0E0B2E0E4E9F3E2D1
:1002500000E00BBF02C007900D92AC32B107D9F796
:100260001BBE15E0ACE2B2E001C01D92AA36B10798
:10027000E1F712E0C6E3D2E004C02297FE010E943B
:10028000B811C433D107C9F70E94840A0C94C8116D
:10029000B7CE882311F08FEF01C088E380930B0164
:1002A0000895882311F012B8089588EF82B908954F
:1002B000823041F1833020F4813009F07DC007C0E5
:1002C000843009F43DC0803109F076C057C088E21F
:1002D00060E066D689E260E063D685E460E060D6DF
:1002E00087E260E05DD684E460E05AD683E460E0B3
:1002F00057D681E460E054D682E460E051D68FE3C3
:1003000060E01AC088E261E04BD689E260E048D63E
:1003100085E461E045D687E260E042D684E461E0AE
:100320003FD683E460E03CD681E461E039D682E4E4
:1003300060E036D68FE361E033D680E460E01DC034
:1003400088E260E02DD689E261E02AD685E460E0AB
:1003500027D687E261E024D684E460E021D683E4F6
:1003600061E01ED681E460E01BD682E461E018D62D
:100370008FE360E015D680E461E012C688E261E0B8
:100380000FD689E261E00CD685E461E009D687E208
:1003900061E006D684E461E003D683E461E000D640
:1003A00081E461E0FDD582E461E0FAD58FE361E0AC
:1003B000F7D580E461E0F4C508958FEF88B981E056
:1003C00090E00E94180A80EE88B908950F931F9359
:1003D000DF93CF9300D00F920F92CDB7DEB7062FE9
:1003E000DE011196E7E1F2E095E001900D92915067
:1003F000E1F7FE01E80FF11D118186E260E0D0D542
:100400001EBD0DB407FEFDCF8EB50EBD0DB407FEAB
:10041000FDCF8EB586E261E0C3D50F900F900F90AF
:100420000F900F90CF91DF911F910F910895CF936F
:10043000DF93F1D486E261E000D5C0E0D0E0FE01B8
:10044000EE5EFD4F8C2F6081C1DF2196C530D10556
:10045000B1F7DF91CF910895863441F1873474F478
:100460008334F1F084342CF48134B1F0823471F5AA
:1004700015C08434B9F0853449F516C08A34E9F0E2
:100480008B342CF48734A1F0883401F513C08B34FD
:10049000B9F08C34D9F417C080B1089583B10895B0
:1004A00086B1089589B108958CB108958FB10895EA
:1004B00082B3089580910001089580910301089509
:1004C000809106010895809109010895089582EEB2
:1004D00094E060E072E00C94EF0B1F93CF93DF93F6
:1004E0008EE090D5892B51F5809153028F5F8093D8
:1004F0005302823018F10FD7209135023091360225
:100500004091370250913802621B730B840B950B9C
:10051000685E73408040904088F082EE94E063E033
:1005200072E00E94EF0B10925302F5D660933502F1
:1005300070933602809337029093380282EE94E0F3
:100540000E947A0F892B09F40CC482EE94E00E9479
:10055000AB0F80932C026AE070E080E090E00FD750
:1005600080912C02803509F411C3813584F48334E1
:1005700009F431C3843424F4813409F0F2C328C06F
:10058000883409F48EC08D3409F0EBC376C182350E
:10059000A1F182353CF0853509F45EC1873509F05B
:1005A000E0C35EC082EE94E00E948B0FC0970A9772
:1005B00008F0D6C382EE94E00E94B10C862F6093BF
:1005C0002D0260E03AD480912D0261E0E9D43DC073
:1005D00082EE94E00E948B0FC0970A9708F0C0C388
:1005E00082EE94E00E94B10C862F60932D0260E0B1
:1005F00024D480912D0235D52BC082EE94E00E9448
:100600008B0F0E94BE11892B79F082EE94E00E943C
:10061000AB0F8093B80220DF682F82EE94E04AE0AF
:1006200050E00E94760B9CC382EE94E00E948B0FF8
:10063000C0970A9708F094C382EE94E00E94B10C30
:10064000862F60932D0260E0F8D380912D02DAD4DA
:10065000BC0182EE94E04AE050E00E94D00B7DC3E2
:1006600082EE94E00E948B0FC0970A9708F078C33F
:1006700082EE94E00E94B10C862F60932D0261E01F
:10068000DCD382EE94E00E94AB0F8834910529F010
:100690008C34910509F061C35CC380912D0261E047
:1006A0005BC382EE94E00E948B0FC0970A9708F01C
:1006B000D0C082EE94E00E94B10C9B01AC0170931B
:1006C000310260933002442737FD4095542F60E497
:1006D00072E48FE090E00E949B1130933E022093E1
:1006E0003D0281E0DEDD10923F0210924002109246
:1006F0004102109242021DD66093390270933A0271
:1007000080933B0290933C028FE07CD4892B09F4C8
:100710004FC080E0BEDD35C080913F029091400225
:10072000A0914102B09142020196A11DB11D80939A
:100730003F0290934002A0934102B0934202F9D548
:100740002091390230913A0240913B0250913C0293
:10075000621B730B840B950B20913D0230913E027E
:1007600040E050E0621773078407950750F025DEDC
:10077000E0D56093390270933A0280933B029093E4
:100780003C028FE03FD4892B69F480913F02909125
:100790004002A0914102B0914202895E9340A04084
:1007A000B04030F48FE02ED4892B09F4B5CFC7CFF9
:1007B00010923F02109240021092410210924202A7
:1007C00081E067DD35C0B5D52091390230913A021C
:1007D00040913B0250913C02621B730B840B950BC2
:1007E00020913D0230913E0240E050E062177307D5
:1007F00084079507E8F0E1DD9CD56093390270939A
:100800003A0280933B0290933C0280913F02909188
:100810004002A0914102B09142020196A11DB11D7A
:1008200080933F0290934002A0934102B093420212
:100830008FE0E8D3892B39F240913F02509140027A
:10084000609141027091420282EE94E02AE030E031
:100850003BD780E026DD84C282EE94E00E948B0FBD
:10086000C0970A9708F07CC282EE94E00E94B10C17
:10087000862F60932D021CDD70C282EE94E00E94F0
:100880008B0FC0970A9708F06BC282EE94E00E942B
:10089000B10C60932D0282EE94E00E948B0F86349F
:1008A000910509F05DC282EE94E00E94B10C9B01BB
:1008B000AC017093340260933302442737FD4095B6
:1008C000542F60E472E48FE090E00E949B1130931B
:1008D0003E0220933D021FD5609343027093440271
:1008E0008093450290934602109247020CC0E82F75
:1008F000F0E0DF01A75BBD4F1C92E25BFD4F108271
:100900008F5F8093470280914702853080F3109279
:1009100047028091480244E150E037C0822F90E0C6
:10092000849FD001859FB00D949FB00D1124AC5AC7
:10093000BD4F1D921D921D921C921397FC01EE0F4C
:10094000FF1FEE0FFF1FE80FF91FEE0FFF1FEE0F47
:10095000FF1FE85AFD4F10821182128213821896EF
:100960001D921D921D921C921B971C961D921D920A
:100970001D921C921F9750961D921D921D921C92C3
:1009800053972F5F2093470285E02091470225303F
:1009900028F28093480280912D0260E04ED280912F
:1009A0002D0261E0FDD280912D022CD3892BD9F745
:1009B000C0D46093390270933A0280933B029093C3
:1009C0003C021CEFC4E0D0E077C0B3D420913902E0
:1009D00030913A0240913B0250913C02621B730BF2
:1009E000840B950B20913D0230913E0240E050E097
:1009F000621773078407950708F45EC09AD4609362
:100A0000390270933A0280933B0290933C025091DA
:100A100003015C7F10924702612F70E0852F90E008
:100A20006827792743C0F0E0CE010E2E02C0880F60
:100A3000991F0A94E2F786239723892B61F0DF013F
:100A4000A25BBD4F8C91823030F0E75BFD4F80811F
:100A50008F5F80831C9240914702242F30E0F90180
:100A6000E75BFD4F8081F901EE0FFF1FEE0FFF1FC7
:100A7000E20FF31FE80FF11DEE0FFF1FEE0FFF1F38
:100A8000EC5AFD4F80819181A281B3810196A11D15
:100A9000B11D80839183A283B383225B3D4FF90113
:100AA00080818F5F80834F5F40934702E0914702D0
:100AB000E53008F4B8CF152F80912D02A3D2892BF1
:100AC00009F483CF10924702C4E1D0E059C01092DC
:100AD00048024CC0222351F482EE94E069E072E0B7
:100AE0007CD620914802809147021DC08091470228
:100AF0002430C9F490E08C9FF0018D9FF00D9C9FF5
:100B0000F00D1124EC5AFD4F408951896289738997
:100B100082EE94E02AE030E0CAD582EE94E06DE007
:100B200072E05DD61EC090E0FC01EE0FFF1FEE0FDD
:100B3000FF1FE80FF91FE20FF11DEE0FFF1FEE0F71
:100B4000FF1FEC5AFD4F408151816281738182EE1B
:100B500094E02AE030E0ABD582EE94E06BE072E006
:100B60003CD6809148028F5F8093480220914802D2
:100B7000253008F4AFCF809147028F5F8093470202
:100B800080914702853008F4A2CFE7C082EE94E05E
:100B90000E948B0FC0970A9708F0E2C082EE94E0A3
:100BA000E0D660932D0282EE94E00E948B0F843495
:100BB000910509F0D5C082EE94E0D3D6609332025D
:100BC00080912D0261E039D16091320280912D0235
:100BD00070E07BD2C2C082EE94E00E948B0FC0977F
:100BE0000A9708F0BDC082EE94E0BBD670932F0246
:100BF00060932E0282EE94E00E948B0F8634910562
:100C000009F0AEC082EE94E0ACD69B01AC017093CB
:100C1000310260933002442737FD4095542F60E441
:100C200072E48FE090E00E949B1130933E0220938B
:100C30003D0280E02EDB82EE94E00E94AB0F843414
:100C4000910529F08535910521F480E001C081E00E
:100C500020DB81E026DB10923F02109240021092CE
:100C600041021092420282EE94E00E948B0F803586
:100C7000910589F482EE94E074D6862F60932D025C
:100C800061E0DBD080912D0261E08AD164E170E007
:100C900080E090E074D34DD36093390270933A02B0
:100CA00080933B0290933C0235C043D3209139029C
:100CB00030913A0240913B0250913C02621B730B0F
:100CC000840B950B20913D0230913E0240E050E0B4
:100CD0006217730784079507E8F06FDB2AD36093E8
:100CE000390270933A0280933B0290933C028091C8
:100CF0003F0290914002A0914102B09142020196C0
:100D0000A11DB11D80933F0290934002A093410228
:100D1000B093420280912E0290912F02AA2797FD54
:100D2000A095BA2F20913F0230914002409141029C
:100D30005091420282179307A407B50708F0B5CF78
:100D400080912D028F3F61F064E170E080E090E0DF
:100D500016D380912D0260E023D18FEF80932D0276
:100D6000B6DBDF91CF911F9108950F931F9302EE91
:100D700014E0C80140E052EC61E070E00E94F40E23
:100D800080E08FDA80E194DA52DB8FE060E055D0CA
:100D90008FE061E005D18EE060E04FD08EE061E051
:100DA000FFD083E061E049D088EF81B987EC809380
:100DB0000A018FE187B91092040188E261E03DD019
:100DC00085E461E03AD084E461E037D081E461E019
:100DD00034D08FE361E031D089E261E02ED087E248
:100DE00061E02BD083E461E028D082E461E025D08B
:100DF00080E461E022D08FD2609335027093360296
:100E00008093370290933802C8016FE072E0E7D414
:100E10001F910F91089585E361E0C2D085E361E001
:100E20000CD08CB580618CBD8CB580648CBD84E3A6
:100E300061E003D083E361E000C0CF93DF93482FEC
:100E400050E0CA0188579E4FFC0134914E5C5E4FC2
:100E5000FA018491882369F190E0880F991FFC01C1
:100E6000EC51FF4FA591B491FC01E250FF4FC591A9
:100E7000D491662351F42FB7F8948C91932F9095C9
:100E800089238C93888189230BC0623061F42FB74A
:100E9000F8948C91932F909589238C938881832B40
:100EA00088832FBF06C09FB7F8948C91832B8C93B7
:100EB0009FBFDF91CF910895893009F449C08A30EE
:100EC000A0F4843051F1853040F4823079F18330E0
:100ED00000F5813009F063C026C0873079F1883091
:100EE00098F5863009F05BC025C08D3009F442C00A
:100EF0008E3028F48B30B1F18C30C0F52DC08031AC
:100F000009F442C0813109F445C08F3009F047C06F
:100F100037C0809180008F7703C0809180008F7DE3
:100F200080938000089584B58F7702C084B58F7D4B
:100F300084BD08958091B0008F7703C08091B00088
:100F40008F7D8093B0000895809190008F7707C0C7
:100F5000809190008F7D03C080919000877F809367
:100F6000900008958091A0008F7707C08091A00025
:100F70008F7D03C08091A000877F8093A00008959B
:100F8000809120018F7703C0809120018F7D809315
:100F90002001089580912001877F8093200108958A
:100FA000FF920F931F93F62E482F50E0CA018252F2
:100FB0009E4FFC012491CA0188579E4FFC01149159
:100FC0004E5C5E4FFA0104910023C1F0222311F020
:100FD000822F72DFE02FF0E0EE0FFF1FE250FF4F95
:100FE000A591B4919FB7F894FF2021F48C911095AE
:100FF000812302C08C91812B8C939FBF1F910F91F5
:10100000FF9008950F931F93482F50E0CA0182521A
:101010009E4FFC012491CA0188579E4FFC01049108
:101020004E5C5E4FFA011491112319F420E030E078
:1010300014C0222311F0822F3FDF812F90E0880F10
:10104000991F885E9E4FFC01A591B4918C9120E080
:1010500030E0802311F021E030E0C9011F910F91B1
:101060000895382F863308F0365320917B00832F64
:1010700086958695869590E08170907043E0880F04
:10108000991F4A95E1F7277F282B20937B00377023
:10109000809111028295880F880F807C832B80932A
:1010A0007C0080917A00806480937A0080917A003D
:1010B00086FDFCCF2091780040917900942F80E04C
:1010C00030E0282B392BC90108951F93CF93DF936C
:1010D000182FEB0161E0B1DE209709F4CAC0CF3FC1
:1010E000D10509F4C9C0E12FF0E0E252FE4F84912E
:1010F000893009F466C08A30B0F48430F1F185306B
:1011000040F4823059F1833070F5813009F0AEC07F
:1011100020C0873009F443C0883008F048C08630CA
:1011200009F0A4C034C08D3009F478C08E3038F492
:101130008B3009F45AC08C3008F066C04CC0803146
:1011400009F480C0813109F487C08F3009F08EC066
:101150006FC084B5806884BDC7BD91C084B580620E
:1011600084BDC8BD8CC08091800080688093800061
:10117000D0938900C093880082C0809180008062F3
:1011800080938000D0938B00C0938A0078C08091B8
:10119000B00080688093B000C093B30070C08091AD
:1011A000B00080628093B000C093B40068C08091AA
:1011B0009000806880939000D0939900C09398002D
:1011C0005EC080919000806280939000D0939B00DD
:1011D000C0939A0054C080919000886080939000E2
:1011E000D0939D00C0939C004AC08091A00080686D
:1011F0008093A0008091A0008F7B8093A000D0936B
:10120000A900C093A8003BC08091A0008062809399
:10121000A000D093AB00C093AA0031C08091A00081
:1012200088608093A000D093AD00C093AC0027C02D
:1012300080912001806880932001D0932901C09380
:1012400028011DC080912001806280932001D093ED
:101250002B01C0932A0113C08091200188608093E4
:101260002001D0932D01C0932C0109C0C038D105B5
:101270001CF4812F60E002C0812F61E091DEDF91DC
:10128000CF911F9108951F920F920FB60F921124C4
:101290002F933F938F939F93AF93BF938091BD0202
:1012A0009091BE02A091BF02B091C0023091C102E4
:1012B0000196A11DB11D232F2D5F2D3720F02D5735
:1012C0000196A11DB11D2093C1028093BD02909390
:1012D000BE02A093BF02B093C0028091B902909168
:1012E000BA02A091BB02B091BC020196A11DB11D32
:1012F0008093B9029093BA02A093BB02B093BC0250
:10130000BF91AF919F918F913F912F910F900FBE01
:101310000F901F9018958FB7F8942091BD023091CF
:10132000BE024091BF025091C0028FBFB901CA01F5
:1013300008959FB7F8942091B9023091BA02409174
:10134000BB025091BC0286B5A89B06C08F3F21F01E
:101350002F5F3F4F4F4F5F4F9FBF542F432F322F71
:101360002227280F311D411D511D82E0220F331FFE
:10137000441F551F8A95D1F7B901CA0108959B01F1
:10138000AC017FB7F8948091B9029091BA02A09114
:10139000BB02B091BC0266B5A89B05C06F3F19F0B7
:1013A0000196A11DB11D7FBFBA2FA92F982F8827A5
:1013B000860F911DA11DB11D62E0880F991FAA1F04
:1013C000BB1F6A95D1F7BC012DC0FFB7F89480917F
:1013D000B9029091BA02A091BB02B091BC02E6B5ED
:1013E000A89B05C0EF3F19F00196A11DB11DFFBFDD
:1013F000BA2FA92F982F88278E0F911DA11DB11DDF
:10140000E2E0880F991FAA1FBB1FEA95D1F7861B40
:10141000970B885E9340C8F22150304040405040C6
:1014200068517C4F211531054105510571F608952C
:10143000019739F0880F991F880F991F029701971C
:10144000F1F70895789484B5826084BD84B5816095
:1014500084BD85B5826085BD85B5816085BDEEE6BC
:10146000F0E0808181608083E1E8F0E0108280819B
:1014700082608083808181608083E0E8F0E0808109
:1014800081608083E1EBF0E0808184608083E0EB29
:10149000F0E0808181608083E1E9F0E0808182601A
:1014A0008083808181608083E0E9F0E080818160D9
:1014B0008083E1EAF0E080818260808380818160C6
:1014C0008083E0EAF0E0808181608083E1E2F1E006
:1014D000808182608083808181608083E0E2F1E0AE
:1014E000808181608083EAE7F0E08081846080838E
:1014F0008081826080838081816080838081806838
:1015000080831092C1000895CF93DF939BDF2DDC81
:10151000C3EBDDE00E946D022097E1F324D3FACF04
:10152000CF92DF92EF92FF920F931F93CF93DF93AF
:101530007C016B018A01C0E0D0E00FC0D6016D9143
:101540006D01D701ED91FC910190F081E02DC70173
:101550001995C80FD91F015010400115110571F7D9
:10156000CE01DF91CF911F910F91FF90EF90DF900F
:10157000CF900895EF92FF920F931F938C01DC019F
:10158000ED91FC910190F081E02D6DE019957C01C9
:10159000D801ED91FC910190F081E02DC8016AE045
:1015A00019959C012E0D3F1DC9011F910F91FF90B0
:1015B000EF900895CF93DF93EC016115710519F455
:1015C00020E030E00FC0DB010D900020E9F711971B
:1015D000A61BB70BE881F9810280F381E02DAD01F4
:1015E00019959C01C901DF91CF9108954F925F92A7
:1015F0007F928F929F92AF92BF92CF92DF92EF92A3
:10160000FF920F931F93DF93CF93CDB7DEB7A197D0
:101610000FB6F894DEBF0FBECDBF2C01742ECB01E8
:10162000223008F42AE019A231E2C32ED12CCC0ECC
:10163000DD1E822E9924AA24BB24672D752FA501B7
:10164000940157D679018A01C801B701A501940117
:1016500031D6472D461B0894C108D1084A3014F4EE
:10166000405D01C0495CF6014083E114F1040105CD
:10167000110521F07E2C5F2DC801DFCFC201B6011C
:1016800099DFA1960FB6F894DEBF0FBECDBFCF9104
:10169000DF911F910F91FF90EF90DF90CF90BF905F
:1016A000AF909F908F907F905F904F900895DC0156
:1016B0002115310541F4ED91FC910190F081E02D6F
:1016C000642F1995089592CFEF92FF920F931F9375
:1016D0007C01EDDF8C01C7014DDF9C01200F311F24
:1016E000C9011F910F91FF90EF900895CF92DF9263
:1016F000EF92FF920F931F936C01E62E9A01FF2445
:1017000000E010E0B801A701D2DF8C01C60132DF92
:10171000080F191FC8011F910F91FF90EF90DF90E4
:10172000CF900895CF92DF92EF92FF920F931F9385
:10173000CF93DF93EC016A017B012115310541F460
:10174000E881F9810190F081E02D642F19951DC089
:101750002A303105C9F477FF16C0E881F98101907C
:10176000F081E02D6DE219958C0144275527BA01CF
:101770004C195D096E097F09CE012AE037DF980117
:10178000280F391F03C02AE031DF9C01C901DF9116
:10179000CF911F910F91FF90EF90DF90CF90089520
:1017A000CF92DF92EF92FF920F931F936C017B0118
:1017B0009A010027F7FC0095102FB801A701B2DFAE
:1017C0008C01C601D7DE080F191FC8011F910F91A8
:1017D000FF90EF90DF90CF900895ECCE0895EF92B8
:1017E000FF920F931F937C01E5DE8C01C701C2DEDF
:1017F000080F191FC8011F910F91FF90EF900895D6
:10180000CF93DF93EC0187DD688779878A879B8791
:10181000E881F9810084F185E02DCE0119959C01C4
:1018200097FF14C078DD288539854A855B85621B62
:10183000730B840B950B2C813D814E815F81621768
:1018400073078407950720F32FEF3FEFC901DF915E
:10185000CF910895CF93DF93EC01CE01D1DF9C01AE
:1018600097FD0EC08D32910559F0C0970A9740F050
:10187000E881F9810680F781E02DCE011995EDCF41
:10188000C901DF91CF9108959F92AF92BF92CF92FD
:10189000DF92EF92FF920F931F93CF93DF936C0130
:1018A000B62ED8DFEC0197FF04C0EE24FF24870199
:1018B0004AC09924EE24FF248701AB2CBB24A7FC4B
:1018C000B094CA15DB0521F1CD32D10519F4992464
:1018D00093941EC0CE01C0970A97D0F4C801B701F7
:1018E0002AE030E040E050E0E5D47B018C01CE01FD
:1018F000AA2797FDA095BA2FE80EF91E0A1F1B1FF5
:1019000080ED9FEFAFEFBFEFE80EF91E0A1F1B1F20
:10191000D601ED91FC910680F781E02DC601199565
:10192000C6016EDFEC01C0970A9758F2CA15DB05B5
:1019300041F2992041F010950095F094E094E11C5B
:10194000F11C011D111DB701C801DF91CF911F913D
:101950000F91FF90EF90DF90CF90BF90AF909F904E
:10196000089561E091CF08951F920F920FB60F92E4
:101970000BB60F9211242F933F934F938F939F9306
:10198000EF93FF938091C00082FD1DC04091C6007F
:1019900020910203309103032F5F3F4F2F7330706C
:1019A00080910403909105032817390771F0E091A5
:1019B0000203F0910303EE53FD4F40833093030382
:1019C0002093020302C08091C600FF91EF919F9186
:1019D0008F914F913F912F910F900BBE0F900FBEA3
:1019E0000F901F90189508951F920F920FB60F92A7
:1019F0000BB60F9211242F933F934F938F939F9386
:101A0000EF93FF938091C80082FD1DC04091CE00EE
:101A100020918A0330918B032F5F3F4F2F733070DB
:101A200080918C0390918D032817390771F0E09114
:101A30008A03F0918B03E65BFC4F408330938B036A
:101A400020938A0302C08091CE00FF91EF919F9175
:101A50008F914F913F912F910F900BBE0F900FBE22
:101A60000F901F90189508951F920F920FB60F9226
:101A70000BB60F9211242F933F934F938F939F9305
:101A8000EF93FF938091D00082FD1DC04091D6005E
:101A900020911204309113042F5F3F4F2F73307049
:101AA00080911404909115042817390771F0E09182
:101AB0001204F0911304EE52FC4F40833093130450
:101AC0002093120402C08091D600FF91EF919F9164
:101AD0008F914F913F912F910F900BBE0F900FBEA2
:101AE0000F901F90189508951F920F920FB60F92A6
:101AF0000BB60F9211242F933F934F938F939F9385
:101B0000EF93FF938091300182FD1DC0409136011B
:101B100020919A0430919B042F5F3F4F2F733070B8
:101B200080919C0490919D042817390771F0E091F1
:101B30009A04F0919B04E65AFB4F408330939B0438
:101B400020939A0402C080913601FF91EF919F91FA
:101B50008F914F913F912F910F900BBE0F900FBE21
:101B60000F901F901895E091EE04F091EF04E05C67
:101B7000FF4F8191919120813181821B930B8F7353
:101B80009070892B09F0EFDEE0911005F0911105BE
:101B9000E05CFF4F8191919120813181821B930BF9
:101BA0008F739070892B09F01EDFE0913205F09160
:101BB0003305E05CFF4F8191919120813181821B3F
:101BC000930B8F739070892B09F04DDFE0915405D2
:101BD000F0915505E05CFF4F819191912081318119
:101BE000821B930B8F739070892B09F07CCF089523
:101BF0001F920F920FB60F920BB60F9211242F93D4
:101C00003F938F939F93EF93FF93209146033091DF
:101C1000470380914803909149032817390731F40D
:101C20008091C1008F7D8093C10014C0E091480372
:101C3000F0914903EA5FFC4F208180914803909125
:101C4000490301968F7390709093490380934803E2
:101C50002093C600FF91EF919F918F913F912F911B
:101C60000F900BBE0F900FBE0F901F9018951F92F4
:101C70000F920FB60F920BB60F9211242F933F9332
:101C80008F939F93EF93FF932091CE033091CF03D7
:101C90008091D0039091D1032817390731F48091B6
:101CA000C9008F7D8093C90014C0E091D003F091EA
:101CB000D103E257FC4F20818091D0039091D10352
:101CC00001968F7390709093D1038093D0032093EB
:101CD000CE00FF91EF919F918F913F912F910F90A7
:101CE0000BBE0F900FBE0F901F9018951F920F9272
:101CF0000FB60F920BB60F9211242F933F938F9331
:101D00009F93EF93FF932091560430915704809155
:101D10005804909159042817390731F48091D10063
:101D20008F7D8093D10014C0E0915804F091590444
:101D3000EA5EFB4F208180915804909159040196EE
:101D40008F73907090935904809358042093D60019
:101D5000FF91EF919F918F913F912F910F900BBE2B
:101D60000F900FBE0F901F9018951F920F920FB6F5
:101D70000F920BB60F9211242F933F938F939F9343
:101D8000EF93FF932091DE043091DF048091E00413
:101D90009091E1042817390731F4809131018F7D4A
:101DA0008093310114C0E091E004F091E104E25627
:101DB000FB4F20818091E0049091E10401968F73A4
:101DC00090709093E1048093E00420933601FF919A
:101DD000EF919F918F913F912F910F900BBE0F909C
:101DE0000FBE0F901F901895AF92BF92DF92EF92A7
:101DF000FF920F931F93CF93DF93EC017A018B0136
:101E0000DD24403081EE580780E0680780E07807E5
:101E100011F0DD24D39491E0A92EB12CEC89FD8939
:101E2000DD2069F0C50108A002C0880F991F0A943F
:101E3000E2F7808360E079E08DE390E005C01082F6
:101E400060E874E88EE190E0A801970152D2215039
:101E5000304040405040569547953795279580E152
:101E60002030380720F0DD2011F0DD24D7CFE889BD
:101E7000F9893083EA89FB89208319A2EE89FF89D9
:101E8000408121E030E0C9010C8C02C0880F991F0D
:101E90000A94E2F7482B4083EE89FF894081C9010B
:101EA0000D8C02C0880F991F0A94E2F7482B4083DB
:101EB000EE89FF894081C9010E8C02C0880F991FED
:101EC0000A94E2F7482B4083EE89FF8980810F8CCA
:101ED00002C0220F331F0A94E2F7209528232083A3
:101EE000DF91CF911F910F91FF90EF90DF90BF9006
:101EF000AF900895DC011C96ED91FC911D97E05C7C
:101F0000FF4F2191319180819181281B390B2F73D3
:101F10003070C9010895DC011C96ED91FC911D976C
:101F2000E05CFF4F20813181E054F040DF01AE5B87
:101F3000BF4F8D919C9111972817390719F42FEFF6
:101F40003FEF07C08D919C91E80FF91F8081282FEA
:101F500030E0C9010895DC011C96ED91FC911D97BC
:101F6000E05CFF4F20813181E054F040DF01AE5B47
:101F7000BF4F8D919C9111972817390719F42FEFB6
:101F80003FEF10C08D919C911197E80FF91F2081B0
:101F90008D919C91119701968F73907011969C93DF
:101FA0008E9330E0C9010895DC0191968C91919750
:101FB000882339F05496ED91FC915597808186FFE6
:101FC000F9CF91961C920895CF93DF93EC01EE85A3
:101FD000FF85E05CFF4F20813181E054F0402F5FAE
:101FE0003F4F2F733070DF01AE5BBF4F8D919C91DF
:101FF000119728173907D1F3E05CFF4F8081918159
:10200000E054F040E80FF91F6083EE85FF85E05C47
:10201000FF4F31832083EE89FF89208181E090E0AA
:102020000F8C02C0880F991F0A94E2F7282B208397
:1020300081E089A3EC89FD8980818064808381E0CF
:1020400090E0DF91CF9108951F931092E5041092D4
:10205000E40428EE33E040E050E02093E6043093BF
:10206000E7044093E8045093E90460E272E070935F
:10207000E3046093E20482EC92E09093EF04809397
:10208000EE0486E093E09093F1048093F00485ECF5
:1020900090E09093F3048093F20484EC90E09093AA
:1020A000F5048093F40480EC90E09093F70480931F
:1020B000F60481EC90E09093F9048093F80482ECAC
:1020C00090E09093FB048093FA0486EC90E0909368
:1020D000FD048093FC0414E01093FE04B3E0B0937D
:1020E000FF04A7E0A0930005F5E0F0930105E1E00F
:1020F000E09302051092070510920605209308054B
:102100003093090540930A0550930B05709305051C
:10211000609304058AE493E0909311058093100581
:102120008EE893E090931305809312058DEC90E078
:1021300090931505809314058CEC90E0909317050F
:102140008093160588EC90E090931905809318050C
:1021500089EC90E090931B0580931A058AEC90E03F
:1021600090931D0580931C058EEC90E090931F05C5
:1021700080931E0510932005B0932105A09322059E
:10218000F0932305E0932405109229051092280569
:1021900020932A0530932B0540932C0550932D0551
:1021A000709327056093260582ED93E090933305A5
:1021B0008093320586E194E0909335058093340551
:1021C00085ED90E0909337058093360584ED90E09F
:1021D000909339058093380580ED90E090933B050E
:1021E00080933A0581ED90E090933D0580933C0506
:1021F00082ED90E090933F0580933E0586ED90E060
:10220000909341058093400510934205B093430598
:10221000A0934405F0934505E093460510924B05C5
:1022200010924A0520934C0530934D0540934E057E
:1022300050934F0570934905609348058AE594E0F3
:1022400090935505809354058EE994E0909357053B
:102250008093560585E391E0909359058093580546
:1022600084E391E090935B0580935A0580E391E0CD
:1022700090935D0580935C0581E391E090935F0509
:1022800080935E0582E391E0909361058093600501
:1022900086E391E090936305809362051093640553
:1022A000B0936505A0936605F0936705E093680514
:1022B0001F910895629FD001739FF001829FE00DEE
:1022C000F11D649FE00DF11D929FF00D839FF00DB5
:1022D000749FF00D659FF00D9927729FB00DE11D61
:1022E000F91F639FB00DE11DF91FBD01CF0111243E
:1022F0000895A1E21A2EAA1BBB1BFD010DC0AA1F47
:10230000BB1FEE1FFF1FA217B307E407F50720F05E
:10231000A21BB30BE40BF50B661F771F881F991FD9
:102320001A9469F760957095809590959B01AC0122
:10233000BD01CF01089597FB092E05260ED057FD4C
:1023400004D0D7DF0AD0001C38F450954095309562
:1023500021953F4F4F4F5F4F0895F6F79095809529
:10236000709561957F4F8F4F9F4F0895EE0FFF1F20
:102370000590F491E02D199485FD07C080629111BC
:1023800004C081568A51E0F7089599278827089557
:04239000F894FFCFEF
:102394006F6B007374617274007B002C007D0031DC
:1023A4000001878787878704050300010000000078
:0C23B400E40F900A7A0FAB0F8B0FD40FD0
:00000001FF
